{
	"ethereum-and-smart-contracts-basics/lab/temperature-conversion.sol": {
		"TemperatureConversion": {
			"abi": [
				{
					"inputs": [],
					"stateMutability": "nonpayable",
					"type": "constructor"
				},
				{
					"inputs": [
						{
							"internalType": "int256",
							"name": "temperature",
							"type": "int256"
						},
						{
							"internalType": "string",
							"name": "fromStr",
							"type": "string"
						}
					],
					"name": "convertTemperature",
					"outputs": [
						{
							"internalType": "int256",
							"name": "",
							"type": "int256"
						}
					],
					"stateMutability": "view",
					"type": "function"
				}
			],
			"devdoc": {
				"kind": "dev",
				"methods": {},
				"version": 1
			},
			"evm": {
				"assembly": "    /* \"ethereum-and-smart-contracts-basics/lab/temperature-conversion.sol\":60:1697  contract TemperatureConversion {... */\n  mstore(0x40, 0x80)\n    /* \"ethereum-and-smart-contracts-basics/lab/temperature-conversion.sol\":315:522  constructor() {... */\n  callvalue\n  dup1\n  iszero\n  tag_1\n  jumpi\n  revert(0x00, 0x00)\ntag_1:\n  pop\n    /* \"ethereum-and-smart-contracts-basics/lab/temperature-conversion.sol\":415:445  Conversion(true, toFahrenheit) */\n  mload(0x40)\n  dup1\n  0x40\n  add\n  0x40\n  mstore\n  dup1\n    /* \"ethereum-and-smart-contracts-basics/lab/temperature-conversion.sol\":426:430  true */\n  0x01\n    /* \"ethereum-and-smart-contracts-basics/lab/temperature-conversion.sol\":415:445  Conversion(true, toFahrenheit) */\n  iszero\n  iszero\n  dup2\n  mstore\n  0x20\n  add\n    /* \"ethereum-and-smart-contracts-basics/lab/temperature-conversion.sol\":432:444  toFahrenheit */\n  or(tag_0_10, shl(0x20, tag_4))\n    /* \"ethereum-and-smart-contracts-basics/lab/temperature-conversion.sol\":415:445  Conversion(true, toFahrenheit) */\n  0xffffffffffffffff\n  and\n  dup2\n  mstore\n  pop\n    /* \"ethereum-and-smart-contracts-basics/lab/temperature-conversion.sol\":387:398  conversions */\n  0x00\n    /* \"ethereum-and-smart-contracts-basics/lab/temperature-conversion.sol\":387:412  conversions[Unit.Celsius] */\n  0x00\n    /* \"ethereum-and-smart-contracts-basics/lab/temperature-conversion.sol\":399:411  Unit.Celsius */\n  0x01\n    /* \"ethereum-and-smart-contracts-basics/lab/temperature-conversion.sol\":387:412  conversions[Unit.Celsius] */\n  dup1\n  dup2\n  gt\n  iszero\n  tag_5\n  jumpi\n  tag_6\n  tag_7\n  jump\t// in\ntag_6:\ntag_5:\n  0x01\n  dup2\n  gt\n  iszero\n  tag_8\n  jumpi\n  tag_9\n  tag_7\n  jump\t// in\ntag_9:\ntag_8:\n  dup2\n  mstore\n  0x20\n  add\n  swap1\n  dup2\n  mstore\n  0x20\n  add\n  0x00\n  keccak256\n    /* \"ethereum-and-smart-contracts-basics/lab/temperature-conversion.sol\":387:445  conversions[Unit.Celsius] = Conversion(true, toFahrenheit) */\n  0x00\n  dup3\n  add\n  mload\n  dup2\n  0x00\n  add\n  exp(0x0100, 0x00)\n  dup2\n  sload\n  dup2\n  0xff\n  mul\n  not\n  and\n  swap1\n  dup4\n  iszero\n  iszero\n  mul\n  or\n  swap1\n  sstore\n  pop\n  0x20\n  dup3\n  add\n  mload\n  dup2\n  0x00\n  add\n  exp(0x0100, 0x01)\n  dup2\n  sload\n  dup2\n  0xffffffffffffffff\n  mul\n  not\n  and\n  swap1\n  dup4\n  0xffffffffffffffff\n  and\n  mul\n  or\n  swap1\n  sstore\n  pop\n  swap1\n  pop\n  pop\n    /* \"ethereum-and-smart-contracts-basics/lab/temperature-conversion.sol\":487:514  Conversion(true, toCelsius) */\n  mload(0x40)\n  dup1\n  0x40\n  add\n  0x40\n  mstore\n  dup1\n    /* \"ethereum-and-smart-contracts-basics/lab/temperature-conversion.sol\":498:502  true */\n  0x01\n    /* \"ethereum-and-smart-contracts-basics/lab/temperature-conversion.sol\":487:514  Conversion(true, toCelsius) */\n  iszero\n  iszero\n  dup2\n  mstore\n  0x20\n  add\n    /* \"ethereum-and-smart-contracts-basics/lab/temperature-conversion.sol\":504:513  toCelsius */\n  or(tag_0_11, shl(0x20, tag_10))\n    /* \"ethereum-and-smart-contracts-basics/lab/temperature-conversion.sol\":487:514  Conversion(true, toCelsius) */\n  0xffffffffffffffff\n  and\n  dup2\n  mstore\n  pop\n    /* \"ethereum-and-smart-contracts-basics/lab/temperature-conversion.sol\":456:467  conversions */\n  0x00\n    /* \"ethereum-and-smart-contracts-basics/lab/temperature-conversion.sol\":456:484  conversions[Unit.Fahrenheit] */\n  0x00\n    /* \"ethereum-and-smart-contracts-basics/lab/temperature-conversion.sol\":468:483  Unit.Fahrenheit */\n  0x00\n    /* \"ethereum-and-smart-contracts-basics/lab/temperature-conversion.sol\":456:484  conversions[Unit.Fahrenheit] */\n  0x01\n  dup2\n  gt\n  iszero\n  tag_11\n  jumpi\n  tag_12\n  tag_7\n  jump\t// in\ntag_12:\ntag_11:\n  0x01\n  dup2\n  gt\n  iszero\n  tag_13\n  jumpi\n  tag_14\n  tag_7\n  jump\t// in\ntag_14:\ntag_13:\n  dup2\n  mstore\n  0x20\n  add\n  swap1\n  dup2\n  mstore\n  0x20\n  add\n  0x00\n  keccak256\n    /* \"ethereum-and-smart-contracts-basics/lab/temperature-conversion.sol\":456:514  conversions[Unit.Fahrenheit] = Conversion(true, toCelsius) */\n  0x00\n  dup3\n  add\n  mload\n  dup2\n  0x00\n  add\n  exp(0x0100, 0x00)\n  dup2\n  sload\n  dup2\n  0xff\n  mul\n  not\n  and\n  swap1\n  dup4\n  iszero\n  iszero\n  mul\n  or\n  swap1\n  sstore\n  pop\n  0x20\n  dup3\n  add\n  mload\n  dup2\n  0x00\n  add\n  exp(0x0100, 0x01)\n  dup2\n  sload\n  dup2\n  0xffffffffffffffff\n  mul\n  not\n  and\n  swap1\n  dup4\n  0xffffffffffffffff\n  and\n  mul\n  or\n  swap1\n  sstore\n  pop\n  swap1\n  pop\n  pop\n    /* \"ethereum-and-smart-contracts-basics/lab/temperature-conversion.sol\":60:1697  contract TemperatureConversion {... */\n  jump(tag_15)\n    /* \"ethereum-and-smart-contracts-basics/lab/temperature-conversion.sol\":534:645  function toFahrenheit(int256 temp) pure internal returns (int256) {... */\ntag_4:\n    /* \"ethereum-and-smart-contracts-basics/lab/temperature-conversion.sol\":592:598  int256 */\n  0x00\n    /* \"ethereum-and-smart-contracts-basics/lab/temperature-conversion.sol\":635:637  32 */\n  0x20\n    /* \"ethereum-and-smart-contracts-basics/lab/temperature-conversion.sol\":631:632  5 */\n  0x05\n    /* \"ethereum-and-smart-contracts-basics/lab/temperature-conversion.sol\":626:627  9 */\n  0x09\n    /* \"ethereum-and-smart-contracts-basics/lab/temperature-conversion.sol\":619:623  temp */\n  dup5\n    /* \"ethereum-and-smart-contracts-basics/lab/temperature-conversion.sol\":619:627  temp * 9 */\n  tag_17\n  swap2\n  swap1\n  tag_18\n  jump\t// in\ntag_17:\n    /* \"ethereum-and-smart-contracts-basics/lab/temperature-conversion.sol\":618:632  (temp * 9) / 5 */\n  tag_19\n  swap2\n  swap1\n  tag_20\n  jump\t// in\ntag_19:\n    /* \"ethereum-and-smart-contracts-basics/lab/temperature-conversion.sol\":618:637  (temp * 9) / 5 + 32 */\n  tag_21\n  swap2\n  swap1\n  tag_22\n  jump\t// in\ntag_21:\n    /* \"ethereum-and-smart-contracts-basics/lab/temperature-conversion.sol\":611:637  return (temp * 9) / 5 + 32 */\n  swap1\n  pop\n    /* \"ethereum-and-smart-contracts-basics/lab/temperature-conversion.sol\":534:645  function toFahrenheit(int256 temp) pure internal returns (int256) {... */\n  swap2\n  swap1\n  pop\n  jump\t// out\n    /* \"ethereum-and-smart-contracts-basics/lab/temperature-conversion.sol\":653:761  function toCelsius(int256 temp) pure internal returns (int256) {... */\ntag_10:\n    /* \"ethereum-and-smart-contracts-basics/lab/temperature-conversion.sol\":708:714  int256 */\n  0x00\n    /* \"ethereum-and-smart-contracts-basics/lab/temperature-conversion.sol\":752:753  9 */\n  0x09\n    /* \"ethereum-and-smart-contracts-basics/lab/temperature-conversion.sol\":748:749  5 */\n  0x05\n    /* \"ethereum-and-smart-contracts-basics/lab/temperature-conversion.sol\":742:744  32 */\n  0x20\n    /* \"ethereum-and-smart-contracts-basics/lab/temperature-conversion.sol\":735:739  temp */\n  dup5\n    /* \"ethereum-and-smart-contracts-basics/lab/temperature-conversion.sol\":735:744  temp - 32 */\n  tag_24\n  swap2\n  swap1\n  tag_25\n  jump\t// in\ntag_24:\n    /* \"ethereum-and-smart-contracts-basics/lab/temperature-conversion.sol\":734:749  (temp - 32) * 5 */\n  tag_26\n  swap2\n  swap1\n  tag_18\n  jump\t// in\ntag_26:\n    /* \"ethereum-and-smart-contracts-basics/lab/temperature-conversion.sol\":734:753  (temp - 32) * 5 / 9 */\n  tag_27\n  swap2\n  swap1\n  tag_20\n  jump\t// in\ntag_27:\n    /* \"ethereum-and-smart-contracts-basics/lab/temperature-conversion.sol\":727:753  return (temp - 32) * 5 / 9 */\n  swap1\n  pop\n    /* \"ethereum-and-smart-contracts-basics/lab/temperature-conversion.sol\":653:761  function toCelsius(int256 temp) pure internal returns (int256) {... */\n  swap2\n  swap1\n  pop\n  jump\t// out\n    /* \"#utility.yul\":7:187   */\ntag_7:\n    /* \"#utility.yul\":55:132   */\n  0x4e487b7100000000000000000000000000000000000000000000000000000000\n    /* \"#utility.yul\":52:53   */\n  0x00\n    /* \"#utility.yul\":45:133   */\n  mstore\n    /* \"#utility.yul\":152:156   */\n  0x21\n    /* \"#utility.yul\":149:150   */\n  0x04\n    /* \"#utility.yul\":142:157   */\n  mstore\n    /* \"#utility.yul\":176:180   */\n  0x24\n    /* \"#utility.yul\":173:174   */\n  0x00\n    /* \"#utility.yul\":166:181   */\n  revert\n    /* \"#utility.yul\":193:269   */\ntag_28:\n    /* \"#utility.yul\":229:236   */\n  0x00\n    /* \"#utility.yul\":258:263   */\n  dup2\n    /* \"#utility.yul\":247:263   */\n  swap1\n  pop\n    /* \"#utility.yul\":193:269   */\n  swap2\n  swap1\n  pop\n  jump\t// out\n    /* \"#utility.yul\":275:455   */\ntag_29:\n    /* \"#utility.yul\":323:400   */\n  0x4e487b7100000000000000000000000000000000000000000000000000000000\n    /* \"#utility.yul\":320:321   */\n  0x00\n    /* \"#utility.yul\":313:401   */\n  mstore\n    /* \"#utility.yul\":420:424   */\n  0x11\n    /* \"#utility.yul\":417:418   */\n  0x04\n    /* \"#utility.yul\":410:425   */\n  mstore\n    /* \"#utility.yul\":444:448   */\n  0x24\n    /* \"#utility.yul\":441:442   */\n  0x00\n    /* \"#utility.yul\":434:449   */\n  revert\n    /* \"#utility.yul\":461:1017   */\ntag_18:\n    /* \"#utility.yul\":500:507   */\n  0x00\n    /* \"#utility.yul\":523:542   */\n  tag_36\n    /* \"#utility.yul\":540:541   */\n  dup3\n    /* \"#utility.yul\":523:542   */\n  tag_28\n  jump\t// in\ntag_36:\n    /* \"#utility.yul\":518:542   */\n  swap2\n  pop\n    /* \"#utility.yul\":556:575   */\n  tag_37\n    /* \"#utility.yul\":573:574   */\n  dup4\n    /* \"#utility.yul\":556:575   */\n  tag_28\n  jump\t// in\ntag_37:\n    /* \"#utility.yul\":551:575   */\n  swap3\n  pop\n    /* \"#utility.yul\":610:611   */\n  dup3\n    /* \"#utility.yul\":607:608   */\n  dup3\n    /* \"#utility.yul\":603:612   */\n  mul\n    /* \"#utility.yul\":632:661   */\n  tag_38\n    /* \"#utility.yul\":649:660   */\n  dup2\n    /* \"#utility.yul\":632:661   */\n  tag_28\n  jump\t// in\ntag_38:\n    /* \"#utility.yul\":621:661   */\n  swap2\n  pop\n    /* \"#utility.yul\":719:785   */\n  0x8000000000000000000000000000000000000000000000000000000000000000\n    /* \"#utility.yul\":716:717   */\n  dup5\n    /* \"#utility.yul\":713:786   */\n  eq\n    /* \"#utility.yul\":709:710   */\n  0x00\n    /* \"#utility.yul\":706:707   */\n  dup5\n    /* \"#utility.yul\":702:711   */\n  slt\n    /* \"#utility.yul\":698:787   */\n  and\n    /* \"#utility.yul\":695:810   */\n  iszero\n  tag_39\n  jumpi\n    /* \"#utility.yul\":790:808   */\n  tag_40\n  tag_29\n  jump\t// in\ntag_40:\n    /* \"#utility.yul\":695:810   */\ntag_39:\n    /* \"#utility.yul\":960:961   */\n  dup3\n    /* \"#utility.yul\":951:958   */\n  dup3\n    /* \"#utility.yul\":946:962   */\n  sdiv\n    /* \"#utility.yul\":943:944   */\n  dup5\n    /* \"#utility.yul\":940:963   */\n  eq\n    /* \"#utility.yul\":920:921   */\n  dup4\n    /* \"#utility.yul\":913:922   */\n  iszero\n    /* \"#utility.yul\":893:977   */\n  or\n    /* \"#utility.yul\":870:1010   */\n  tag_41\n  jumpi\n    /* \"#utility.yul\":990:1008   */\n  tag_42\n  tag_29\n  jump\t// in\ntag_42:\n    /* \"#utility.yul\":870:1010   */\ntag_41:\n    /* \"#utility.yul\":508:1017   */\n  pop\n    /* \"#utility.yul\":461:1017   */\n  swap3\n  swap2\n  pop\n  pop\n  jump\t// out\n    /* \"#utility.yul\":1023:1203   */\ntag_30:\n    /* \"#utility.yul\":1071:1148   */\n  0x4e487b7100000000000000000000000000000000000000000000000000000000\n    /* \"#utility.yul\":1068:1069   */\n  0x00\n    /* \"#utility.yul\":1061:1149   */\n  mstore\n    /* \"#utility.yul\":1168:1172   */\n  0x12\n    /* \"#utility.yul\":1165:1166   */\n  0x04\n    /* \"#utility.yul\":1158:1173   */\n  mstore\n    /* \"#utility.yul\":1192:1196   */\n  0x24\n    /* \"#utility.yul\":1189:1190   */\n  0x00\n    /* \"#utility.yul\":1182:1197   */\n  revert\n    /* \"#utility.yul\":1209:1594   */\ntag_20:\n    /* \"#utility.yul\":1248:1249   */\n  0x00\n    /* \"#utility.yul\":1265:1284   */\n  tag_45\n    /* \"#utility.yul\":1282:1283   */\n  dup3\n    /* \"#utility.yul\":1265:1284   */\n  tag_28\n  jump\t// in\ntag_45:\n    /* \"#utility.yul\":1260:1284   */\n  swap2\n  pop\n    /* \"#utility.yul\":1298:1317   */\n  tag_46\n    /* \"#utility.yul\":1315:1316   */\n  dup4\n    /* \"#utility.yul\":1298:1317   */\n  tag_28\n  jump\t// in\ntag_46:\n    /* \"#utility.yul\":1293:1317   */\n  swap3\n  pop\n    /* \"#utility.yul\":1336:1337   */\n  dup3\n    /* \"#utility.yul\":1326:1361   */\n  tag_47\n  jumpi\n    /* \"#utility.yul\":1341:1359   */\n  tag_48\n  tag_30\n  jump\t// in\ntag_48:\n    /* \"#utility.yul\":1326:1361   */\ntag_47:\n    /* \"#utility.yul\":1527:1528   */\n  0x01\n    /* \"#utility.yul\":1524:1525   */\n  0x00\n    /* \"#utility.yul\":1520:1529   */\n  sub\n    /* \"#utility.yul\":1517:1518   */\n  dup4\n    /* \"#utility.yul\":1514:1530   */\n  eq\n    /* \"#utility.yul\":1433:1499   */\n  0x8000000000000000000000000000000000000000000000000000000000000000\n    /* \"#utility.yul\":1430:1431   */\n  dup4\n    /* \"#utility.yul\":1427:1500   */\n  eq\n    /* \"#utility.yul\":1410:1540   */\n  and\n    /* \"#utility.yul\":1407:1563   */\n  iszero\n  tag_49\n  jumpi\n    /* \"#utility.yul\":1543:1561   */\n  tag_50\n  tag_29\n  jump\t// in\ntag_50:\n    /* \"#utility.yul\":1407:1563   */\ntag_49:\n    /* \"#utility.yul\":1586:1587   */\n  dup3\n    /* \"#utility.yul\":1583:1584   */\n  dup3\n    /* \"#utility.yul\":1578:1588   */\n  sdiv\n    /* \"#utility.yul\":1573:1588   */\n  swap1\n  pop\n    /* \"#utility.yul\":1209:1594   */\n  swap3\n  swap2\n  pop\n  pop\n  jump\t// out\n    /* \"#utility.yul\":1600:1975   */\ntag_22:\n    /* \"#utility.yul\":1639:1642   */\n  0x00\n    /* \"#utility.yul\":1658:1677   */\n  tag_52\n    /* \"#utility.yul\":1675:1676   */\n  dup3\n    /* \"#utility.yul\":1658:1677   */\n  tag_28\n  jump\t// in\ntag_52:\n    /* \"#utility.yul\":1653:1677   */\n  swap2\n  pop\n    /* \"#utility.yul\":1691:1710   */\n  tag_53\n    /* \"#utility.yul\":1708:1709   */\n  dup4\n    /* \"#utility.yul\":1691:1710   */\n  tag_28\n  jump\t// in\ntag_53:\n    /* \"#utility.yul\":1686:1710   */\n  swap3\n  pop\n    /* \"#utility.yul\":1733:1734   */\n  dup3\n    /* \"#utility.yul\":1730:1731   */\n  dup3\n    /* \"#utility.yul\":1726:1735   */\n  add\n    /* \"#utility.yul\":1719:1735   */\n  swap1\n  pop\n    /* \"#utility.yul\":1931:1932   */\n  dup3\n    /* \"#utility.yul\":1926:1929   */\n  dup2\n    /* \"#utility.yul\":1922:1933   */\n  slt\n    /* \"#utility.yul\":1915:1934   */\n  iszero\n    /* \"#utility.yul\":1911:1912   */\n  0x00\n    /* \"#utility.yul\":1908:1909   */\n  dup4\n    /* \"#utility.yul\":1904:1913   */\n  slt\n    /* \"#utility.yul\":1900:1935   */\n  and\n    /* \"#utility.yul\":1883:1884   */\n  dup4\n    /* \"#utility.yul\":1878:1881   */\n  dup3\n    /* \"#utility.yul\":1874:1885   */\n  slt\n    /* \"#utility.yul\":1869:1870   */\n  0x00\n    /* \"#utility.yul\":1866:1867   */\n  dup5\n    /* \"#utility.yul\":1862:1871   */\n  slt\n    /* \"#utility.yul\":1855:1872   */\n  iszero\n    /* \"#utility.yul\":1851:1886   */\n  and\n    /* \"#utility.yul\":1835:1945   */\n  or\n    /* \"#utility.yul\":1832:1968   */\n  iszero\n  tag_54\n  jumpi\n    /* \"#utility.yul\":1948:1966   */\n  tag_55\n  tag_29\n  jump\t// in\ntag_55:\n    /* \"#utility.yul\":1832:1968   */\ntag_54:\n    /* \"#utility.yul\":1600:1975   */\n  swap3\n  swap2\n  pop\n  pop\n  jump\t// out\n    /* \"#utility.yul\":1981:2353   */\ntag_25:\n    /* \"#utility.yul\":2020:2024   */\n  0x00\n    /* \"#utility.yul\":2040:2059   */\n  tag_57\n    /* \"#utility.yul\":2057:2058   */\n  dup3\n    /* \"#utility.yul\":2040:2059   */\n  tag_28\n  jump\t// in\ntag_57:\n    /* \"#utility.yul\":2035:2059   */\n  swap2\n  pop\n    /* \"#utility.yul\":2073:2092   */\n  tag_58\n    /* \"#utility.yul\":2090:2091   */\n  dup4\n    /* \"#utility.yul\":2073:2092   */\n  tag_28\n  jump\t// in\ntag_58:\n    /* \"#utility.yul\":2068:2092   */\n  swap3\n  pop\n    /* \"#utility.yul\":2116:2117   */\n  dup3\n    /* \"#utility.yul\":2113:2114   */\n  dup3\n    /* \"#utility.yul\":2109:2118   */\n  sub\n    /* \"#utility.yul\":2101:2118   */\n  swap1\n  pop\n    /* \"#utility.yul\":2310:2311   */\n  dup2\n    /* \"#utility.yul\":2304:2308   */\n  dup2\n    /* \"#utility.yul\":2300:2312   */\n  slt\n    /* \"#utility.yul\":2296:2297   */\n  0x00\n    /* \"#utility.yul\":2293:2294   */\n  dup5\n    /* \"#utility.yul\":2289:2298   */\n  slt\n    /* \"#utility.yul\":2285:2313   */\n  and\n    /* \"#utility.yul\":2268:2269   */\n  dup3\n    /* \"#utility.yul\":2262:2266   */\n  dup3\n    /* \"#utility.yul\":2258:2270   */\n  sgt\n    /* \"#utility.yul\":2253:2254   */\n  0x00\n    /* \"#utility.yul\":2250:2251   */\n  dup6\n    /* \"#utility.yul\":2246:2255   */\n  slt\n    /* \"#utility.yul\":2239:2256   */\n  iszero\n    /* \"#utility.yul\":2235:2271   */\n  and\n    /* \"#utility.yul\":2219:2323   */\n  or\n    /* \"#utility.yul\":2216:2346   */\n  iszero\n  tag_59\n  jumpi\n    /* \"#utility.yul\":2326:2344   */\n  tag_60\n  tag_29\n  jump\t// in\ntag_60:\n    /* \"#utility.yul\":2216:2346   */\ntag_59:\n    /* \"#utility.yul\":1981:2353   */\n  swap3\n  swap2\n  pop\n  pop\n  jump\t// out\n    /* \"ethereum-and-smart-contracts-basics/lab/temperature-conversion.sol\":60:1697  contract TemperatureConversion {... */\ntag_15:\n  dataSize(sub_0)\n  dup1\n  dataOffset(sub_0)\n  0x00\n  codecopy\n  0x00\n  return\nstop\n\nsub_0: assembly {\n        /* \"ethereum-and-smart-contracts-basics/lab/temperature-conversion.sol\":60:1697  contract TemperatureConversion {... */\n      mstore(0x40, 0x80)\n      callvalue\n      dup1\n      iszero\n      tag_1\n      jumpi\n      revert(0x00, 0x00)\n    tag_1:\n      pop\n      jumpi(tag_2, lt(calldatasize, 0x04))\n      shr(0xe0, calldataload(0x00))\n      dup1\n      0x183b3372\n      eq\n      tag_3\n      jumpi\n    tag_2:\n      revert(0x00, 0x00)\n        /* \"ethereum-and-smart-contracts-basics/lab/temperature-conversion.sol\":1235:1694  function convertTemperature(... */\n    tag_3:\n      tag_4\n      0x04\n      dup1\n      calldatasize\n      sub\n      dup2\n      add\n      swap1\n      tag_5\n      swap2\n      swap1\n      tag_6\n      jump\t// in\n    tag_5:\n      tag_7\n      jump\t// in\n    tag_4:\n      mload(0x40)\n      tag_8\n      swap2\n      swap1\n      tag_9\n      jump\t// in\n    tag_8:\n      mload(0x40)\n      dup1\n      swap2\n      sub\n      swap1\n      return\n    tag_7:\n        /* \"ethereum-and-smart-contracts-basics/lab/temperature-conversion.sol\":1352:1358  int256 */\n      0x00\n        /* \"ethereum-and-smart-contracts-basics/lab/temperature-conversion.sol\":1461:1474  Unit fromUnit */\n      0x00\n        /* \"ethereum-and-smart-contracts-basics/lab/temperature-conversion.sol\":1477:1496  charToUnit(fromStr) */\n      tag_13\n        /* \"ethereum-and-smart-contracts-basics/lab/temperature-conversion.sol\":1488:1495  fromStr */\n      dup4\n        /* \"ethereum-and-smart-contracts-basics/lab/temperature-conversion.sol\":1477:1487  charToUnit */\n      tag_14\n        /* \"ethereum-and-smart-contracts-basics/lab/temperature-conversion.sol\":1477:1496  charToUnit(fromStr) */\n      jump\t// in\n    tag_13:\n        /* \"ethereum-and-smart-contracts-basics/lab/temperature-conversion.sol\":1461:1496  Unit fromUnit = charToUnit(fromStr) */\n      swap1\n      pop\n        /* \"ethereum-and-smart-contracts-basics/lab/temperature-conversion.sol\":1509:1537  Conversion memory conversion */\n      0x00\n        /* \"ethereum-and-smart-contracts-basics/lab/temperature-conversion.sol\":1540:1551  conversions */\n      0x00\n        /* \"ethereum-and-smart-contracts-basics/lab/temperature-conversion.sol\":1540:1561  conversions[fromUnit] */\n      0x00\n        /* \"ethereum-and-smart-contracts-basics/lab/temperature-conversion.sol\":1552:1560  fromUnit */\n      dup4\n        /* \"ethereum-and-smart-contracts-basics/lab/temperature-conversion.sol\":1540:1561  conversions[fromUnit] */\n      0x01\n      dup2\n      gt\n      iszero\n      tag_15\n      jumpi\n      tag_16\n      tag_17\n      jump\t// in\n    tag_16:\n    tag_15:\n      0x01\n      dup2\n      gt\n      iszero\n      tag_18\n      jumpi\n      tag_19\n      tag_17\n      jump\t// in\n    tag_19:\n    tag_18:\n      dup2\n      mstore\n      0x20\n      add\n      swap1\n      dup2\n      mstore\n      0x20\n      add\n      0x00\n      keccak256\n        /* \"ethereum-and-smart-contracts-basics/lab/temperature-conversion.sol\":1509:1561  Conversion memory conversion = conversions[fromUnit] */\n      mload(0x40)\n      dup1\n      0x40\n      add\n      0x40\n      mstore\n      swap1\n      dup2\n      0x00\n      dup3\n      add\n      0x00\n      swap1\n      sload\n      swap1\n      0x0100\n      exp\n      swap1\n      div\n      0xff\n      and\n      iszero\n      iszero\n      iszero\n      iszero\n      dup2\n      mstore\n      0x20\n      add\n      0x00\n      dup3\n      add\n      0x01\n      swap1\n      sload\n      swap1\n      0x0100\n      exp\n      swap1\n      div\n      dup1\n      iszero\n      tag_20\n      mul\n      or\n      0xffffffffffffffff\n      and\n      0xffffffffffffffff\n      and\n      0xffffffffffffffff\n      and\n      dup2\n      mstore\n      pop\n      pop\n      swap1\n      pop\n        /* \"ethereum-and-smart-contracts-basics/lab/temperature-conversion.sol\":1582:1592  conversion */\n      dup1\n        /* \"ethereum-and-smart-contracts-basics/lab/temperature-conversion.sol\":1582:1599  conversion.exists */\n      0x00\n      add\n      mload\n        /* \"ethereum-and-smart-contracts-basics/lab/temperature-conversion.sol\":1574:1638  require(conversion.exists, \"Invalid unit conversion requested.\") */\n      tag_21\n      jumpi\n      mload(0x40)\n      0x08c379a000000000000000000000000000000000000000000000000000000000\n      dup2\n      mstore\n      0x04\n      add\n      tag_22\n      swap1\n      tag_23\n      jump\t// in\n    tag_22:\n      mload(0x40)\n      dup1\n      swap2\n      sub\n      swap1\n      revert\n    tag_21:\n        /* \"ethereum-and-smart-contracts-basics/lab/temperature-conversion.sol\":1658:1686  conversion.func(temperature) */\n      tag_24\n        /* \"ethereum-and-smart-contracts-basics/lab/temperature-conversion.sol\":1674:1685  temperature */\n      dup6\n        /* \"ethereum-and-smart-contracts-basics/lab/temperature-conversion.sol\":1658:1668  conversion */\n      dup3\n        /* \"ethereum-and-smart-contracts-basics/lab/temperature-conversion.sol\":1658:1673  conversion.func */\n      0x20\n      add\n      mload\n        /* \"ethereum-and-smart-contracts-basics/lab/temperature-conversion.sol\":1658:1686  conversion.func(temperature) */\n      0xffffffff\n      and\n      jump\t// in\n    tag_24:\n        /* \"ethereum-and-smart-contracts-basics/lab/temperature-conversion.sol\":1651:1686  return conversion.func(temperature) */\n      swap3\n      pop\n      pop\n      pop\n        /* \"ethereum-and-smart-contracts-basics/lab/temperature-conversion.sol\":1235:1694  function convertTemperature(... */\n      swap3\n      swap2\n      pop\n      pop\n      jump\t// out\n        /* \"ethereum-and-smart-contracts-basics/lab/temperature-conversion.sol\":534:645  function toFahrenheit(int256 temp) pure internal returns (int256) {... */\n    tag_10:\n        /* \"ethereum-and-smart-contracts-basics/lab/temperature-conversion.sol\":592:598  int256 */\n      0x00\n        /* \"ethereum-and-smart-contracts-basics/lab/temperature-conversion.sol\":635:637  32 */\n      0x20\n        /* \"ethereum-and-smart-contracts-basics/lab/temperature-conversion.sol\":631:632  5 */\n      0x05\n        /* \"ethereum-and-smart-contracts-basics/lab/temperature-conversion.sol\":626:627  9 */\n      0x09\n        /* \"ethereum-and-smart-contracts-basics/lab/temperature-conversion.sol\":619:623  temp */\n      dup5\n        /* \"ethereum-and-smart-contracts-basics/lab/temperature-conversion.sol\":619:627  temp * 9 */\n      tag_26\n      swap2\n      swap1\n      tag_27\n      jump\t// in\n    tag_26:\n        /* \"ethereum-and-smart-contracts-basics/lab/temperature-conversion.sol\":618:632  (temp * 9) / 5 */\n      tag_28\n      swap2\n      swap1\n      tag_29\n      jump\t// in\n    tag_28:\n        /* \"ethereum-and-smart-contracts-basics/lab/temperature-conversion.sol\":618:637  (temp * 9) / 5 + 32 */\n      tag_30\n      swap2\n      swap1\n      tag_31\n      jump\t// in\n    tag_30:\n        /* \"ethereum-and-smart-contracts-basics/lab/temperature-conversion.sol\":611:637  return (temp * 9) / 5 + 32 */\n      swap1\n      pop\n        /* \"ethereum-and-smart-contracts-basics/lab/temperature-conversion.sol\":534:645  function toFahrenheit(int256 temp) pure internal returns (int256) {... */\n      swap2\n      swap1\n      pop\n      jump\t// out\n        /* \"ethereum-and-smart-contracts-basics/lab/temperature-conversion.sol\":653:761  function toCelsius(int256 temp) pure internal returns (int256) {... */\n    tag_11:\n        /* \"ethereum-and-smart-contracts-basics/lab/temperature-conversion.sol\":708:714  int256 */\n      0x00\n        /* \"ethereum-and-smart-contracts-basics/lab/temperature-conversion.sol\":752:753  9 */\n      0x09\n        /* \"ethereum-and-smart-contracts-basics/lab/temperature-conversion.sol\":748:749  5 */\n      0x05\n        /* \"ethereum-and-smart-contracts-basics/lab/temperature-conversion.sol\":742:744  32 */\n      0x20\n        /* \"ethereum-and-smart-contracts-basics/lab/temperature-conversion.sol\":735:739  temp */\n      dup5\n        /* \"ethereum-and-smart-contracts-basics/lab/temperature-conversion.sol\":735:744  temp - 32 */\n      tag_33\n      swap2\n      swap1\n      tag_34\n      jump\t// in\n    tag_33:\n        /* \"ethereum-and-smart-contracts-basics/lab/temperature-conversion.sol\":734:749  (temp - 32) * 5 */\n      tag_35\n      swap2\n      swap1\n      tag_27\n      jump\t// in\n    tag_35:\n        /* \"ethereum-and-smart-contracts-basics/lab/temperature-conversion.sol\":734:753  (temp - 32) * 5 / 9 */\n      tag_36\n      swap2\n      swap1\n      tag_29\n      jump\t// in\n    tag_36:\n        /* \"ethereum-and-smart-contracts-basics/lab/temperature-conversion.sol\":727:753  return (temp - 32) * 5 / 9 */\n      swap1\n      pop\n        /* \"ethereum-and-smart-contracts-basics/lab/temperature-conversion.sol\":653:761  function toCelsius(int256 temp) pure internal returns (int256) {... */\n      swap2\n      swap1\n      pop\n      jump\t// out\n        /* \"ethereum-and-smart-contracts-basics/lab/temperature-conversion.sol\":769:1227  function charToUnit(string memory unitStr) internal pure returns (Unit) {... */\n    tag_14:\n        /* \"ethereum-and-smart-contracts-basics/lab/temperature-conversion.sol\":835:839  Unit */\n      0x00\n        /* \"ethereum-and-smart-contracts-basics/lab/temperature-conversion.sol\":852:874  bytes memory unitBytes */\n      0x00\n        /* \"ethereum-and-smart-contracts-basics/lab/temperature-conversion.sol\":883:890  unitStr */\n      dup3\n        /* \"ethereum-and-smart-contracts-basics/lab/temperature-conversion.sol\":852:891  bytes memory unitBytes = bytes(unitStr) */\n      swap1\n      pop\n        /* \"ethereum-and-smart-contracts-basics/lab/temperature-conversion.sol\":930:931  1 */\n      0x01\n        /* \"ethereum-and-smart-contracts-basics/lab/temperature-conversion.sol\":910:919  unitBytes */\n      dup2\n        /* \"ethereum-and-smart-contracts-basics/lab/temperature-conversion.sol\":910:926  unitBytes.length */\n      mload\n        /* \"ethereum-and-smart-contracts-basics/lab/temperature-conversion.sol\":910:931  unitBytes.length == 1 */\n      eq\n        /* \"ethereum-and-smart-contracts-basics/lab/temperature-conversion.sol\":902:968  require(unitBytes.length == 1, \"Unit must be a single character.\") */\n      tag_38\n      jumpi\n      mload(0x40)\n      0x08c379a000000000000000000000000000000000000000000000000000000000\n      dup2\n      mstore\n      0x04\n      add\n      tag_39\n      swap1\n      tag_40\n      jump\t// in\n    tag_39:\n      mload(0x40)\n      dup1\n      swap2\n      sub\n      swap1\n      revert\n    tag_38:\n        /* \"ethereum-and-smart-contracts-basics/lab/temperature-conversion.sol\":981:992  bytes1 char */\n      0x00\n        /* \"ethereum-and-smart-contracts-basics/lab/temperature-conversion.sol\":995:1004  unitBytes */\n      dup2\n        /* \"ethereum-and-smart-contracts-basics/lab/temperature-conversion.sol\":1005:1006  0 */\n      0x00\n        /* \"ethereum-and-smart-contracts-basics/lab/temperature-conversion.sol\":995:1007  unitBytes[0] */\n      dup2\n      mload\n      dup2\n      lt\n      tag_41\n      jumpi\n      tag_42\n      tag_43\n      jump\t// in\n    tag_42:\n    tag_41:\n      0x20\n      add\n      add\n      mload\n      0xf8\n      shr\n      0xf8\n      shl\n        /* \"ethereum-and-smart-contracts-basics/lab/temperature-conversion.sol\":981:1007  bytes1 char = unitBytes[0] */\n      swap1\n      pop\n        /* \"ethereum-and-smart-contracts-basics/lab/temperature-conversion.sol\":1024:1035  char == \"C\" */\n      0x4300000000000000000000000000000000000000000000000000000000000000\n        /* \"ethereum-and-smart-contracts-basics/lab/temperature-conversion.sol\":1024:1028  char */\n      dup2\n        /* \"ethereum-and-smart-contracts-basics/lab/temperature-conversion.sol\":1024:1035  char == \"C\" */\n      not(0xffffffffffffffffffffffffffffffffffffffffffffffffffffffffffffff)\n      and\n      sub\n        /* \"ethereum-and-smart-contracts-basics/lab/temperature-conversion.sol\":1020:1220  if (char == \"C\") {... */\n      tag_44\n      jumpi\n        /* \"ethereum-and-smart-contracts-basics/lab/temperature-conversion.sol\":1059:1071  Unit.Celsius */\n      0x01\n        /* \"ethereum-and-smart-contracts-basics/lab/temperature-conversion.sol\":1052:1071  return Unit.Celsius */\n      swap3\n      pop\n      pop\n      pop\n      jump(tag_37)\n        /* \"ethereum-and-smart-contracts-basics/lab/temperature-conversion.sol\":1020:1220  if (char == \"C\") {... */\n    tag_44:\n        /* \"ethereum-and-smart-contracts-basics/lab/temperature-conversion.sol\":1093:1104  char == \"F\" */\n      0x4600000000000000000000000000000000000000000000000000000000000000\n        /* \"ethereum-and-smart-contracts-basics/lab/temperature-conversion.sol\":1093:1097  char */\n      dup2\n        /* \"ethereum-and-smart-contracts-basics/lab/temperature-conversion.sol\":1093:1104  char == \"F\" */\n      not(0xffffffffffffffffffffffffffffffffffffffffffffffffffffffffffffff)\n      and\n      sub\n        /* \"ethereum-and-smart-contracts-basics/lab/temperature-conversion.sol\":1089:1220  if (char == \"F\") {... */\n      tag_46\n      jumpi\n        /* \"ethereum-and-smart-contracts-basics/lab/temperature-conversion.sol\":1128:1143  Unit.Fahrenheit */\n      0x00\n        /* \"ethereum-and-smart-contracts-basics/lab/temperature-conversion.sol\":1121:1143  return Unit.Fahrenheit */\n      swap3\n      pop\n      pop\n      pop\n      jump(tag_37)\n        /* \"ethereum-and-smart-contracts-basics/lab/temperature-conversion.sol\":1089:1220  if (char == \"F\") {... */\n    tag_46:\n        /* \"ethereum-and-smart-contracts-basics/lab/temperature-conversion.sol\":1176:1208  revert(\"Invalid unit provided.\") */\n      mload(0x40)\n      0x08c379a000000000000000000000000000000000000000000000000000000000\n      dup2\n      mstore\n      0x04\n      add\n      tag_48\n      swap1\n      tag_49\n      jump\t// in\n    tag_48:\n      mload(0x40)\n      dup1\n      swap2\n      sub\n      swap1\n      revert\n        /* \"ethereum-and-smart-contracts-basics/lab/temperature-conversion.sol\":769:1227  function charToUnit(string memory unitStr) internal pure returns (Unit) {... */\n    tag_37:\n      swap2\n      swap1\n      pop\n      jump\t// out\n    tag_20:\n      tag_50\n      tag_51\n      jump\t// in\n    tag_50:\n      jump\t// out\n        /* \"#utility.yul\":7:82   */\n    tag_52:\n        /* \"#utility.yul\":40:46   */\n      0x00\n        /* \"#utility.yul\":73:75   */\n      0x40\n        /* \"#utility.yul\":67:76   */\n      mload\n        /* \"#utility.yul\":57:76   */\n      swap1\n      pop\n        /* \"#utility.yul\":7:82   */\n      swap1\n      jump\t// out\n        /* \"#utility.yul\":88:205   */\n    tag_53:\n        /* \"#utility.yul\":197:198   */\n      0x00\n        /* \"#utility.yul\":194:195   */\n      0x00\n        /* \"#utility.yul\":187:199   */\n      revert\n        /* \"#utility.yul\":211:328   */\n    tag_54:\n        /* \"#utility.yul\":320:321   */\n      0x00\n        /* \"#utility.yul\":317:318   */\n      0x00\n        /* \"#utility.yul\":310:322   */\n      revert\n        /* \"#utility.yul\":334:410   */\n    tag_55:\n        /* \"#utility.yul\":370:377   */\n      0x00\n        /* \"#utility.yul\":399:404   */\n      dup2\n        /* \"#utility.yul\":388:404   */\n      swap1\n      pop\n        /* \"#utility.yul\":334:410   */\n      swap2\n      swap1\n      pop\n      jump\t// out\n        /* \"#utility.yul\":416:536   */\n    tag_56:\n        /* \"#utility.yul\":488:511   */\n      tag_84\n        /* \"#utility.yul\":505:510   */\n      dup2\n        /* \"#utility.yul\":488:511   */\n      tag_55\n      jump\t// in\n    tag_84:\n        /* \"#utility.yul\":481:486   */\n      dup2\n        /* \"#utility.yul\":478:512   */\n      eq\n        /* \"#utility.yul\":468:530   */\n      tag_85\n      jumpi\n        /* \"#utility.yul\":526:527   */\n      0x00\n        /* \"#utility.yul\":523:524   */\n      0x00\n        /* \"#utility.yul\":516:528   */\n      revert\n        /* \"#utility.yul\":468:530   */\n    tag_85:\n        /* \"#utility.yul\":416:536   */\n      pop\n      jump\t// out\n        /* \"#utility.yul\":542:679   */\n    tag_57:\n        /* \"#utility.yul\":587:592   */\n      0x00\n        /* \"#utility.yul\":625:631   */\n      dup2\n        /* \"#utility.yul\":612:632   */\n      calldataload\n        /* \"#utility.yul\":603:632   */\n      swap1\n      pop\n        /* \"#utility.yul\":641:673   */\n      tag_87\n        /* \"#utility.yul\":667:672   */\n      dup2\n        /* \"#utility.yul\":641:673   */\n      tag_56\n      jump\t// in\n    tag_87:\n        /* \"#utility.yul\":542:679   */\n      swap3\n      swap2\n      pop\n      pop\n      jump\t// out\n        /* \"#utility.yul\":685:802   */\n    tag_58:\n        /* \"#utility.yul\":794:795   */\n      0x00\n        /* \"#utility.yul\":791:792   */\n      0x00\n        /* \"#utility.yul\":784:796   */\n      revert\n        /* \"#utility.yul\":808:925   */\n    tag_59:\n        /* \"#utility.yul\":917:918   */\n      0x00\n        /* \"#utility.yul\":914:915   */\n      0x00\n        /* \"#utility.yul\":907:919   */\n      revert\n        /* \"#utility.yul\":931:1033   */\n    tag_60:\n        /* \"#utility.yul\":972:978   */\n      0x00\n        /* \"#utility.yul\":1023:1025   */\n      0x1f\n        /* \"#utility.yul\":1019:1026   */\n      not\n        /* \"#utility.yul\":1014:1016   */\n      0x1f\n        /* \"#utility.yul\":1007:1012   */\n      dup4\n        /* \"#utility.yul\":1003:1017   */\n      add\n        /* \"#utility.yul\":999:1027   */\n      and\n        /* \"#utility.yul\":989:1027   */\n      swap1\n      pop\n        /* \"#utility.yul\":931:1033   */\n      swap2\n      swap1\n      pop\n      jump\t// out\n        /* \"#utility.yul\":1039:1219   */\n    tag_61:\n        /* \"#utility.yul\":1087:1164   */\n      0x4e487b7100000000000000000000000000000000000000000000000000000000\n        /* \"#utility.yul\":1084:1085   */\n      0x00\n        /* \"#utility.yul\":1077:1165   */\n      mstore\n        /* \"#utility.yul\":1184:1188   */\n      0x41\n        /* \"#utility.yul\":1181:1182   */\n      0x04\n        /* \"#utility.yul\":1174:1189   */\n      mstore\n        /* \"#utility.yul\":1208:1212   */\n      0x24\n        /* \"#utility.yul\":1205:1206   */\n      0x00\n        /* \"#utility.yul\":1198:1213   */\n      revert\n        /* \"#utility.yul\":1225:1506   */\n    tag_62:\n        /* \"#utility.yul\":1308:1335   */\n      tag_93\n        /* \"#utility.yul\":1330:1334   */\n      dup3\n        /* \"#utility.yul\":1308:1335   */\n      tag_60\n      jump\t// in\n    tag_93:\n        /* \"#utility.yul\":1300:1306   */\n      dup2\n        /* \"#utility.yul\":1296:1336   */\n      add\n        /* \"#utility.yul\":1438:1444   */\n      dup2\n        /* \"#utility.yul\":1426:1436   */\n      dup2\n        /* \"#utility.yul\":1423:1445   */\n      lt\n        /* \"#utility.yul\":1402:1420   */\n      0xffffffffffffffff\n        /* \"#utility.yul\":1390:1400   */\n      dup3\n        /* \"#utility.yul\":1387:1421   */\n      gt\n        /* \"#utility.yul\":1384:1446   */\n      or\n        /* \"#utility.yul\":1381:1469   */\n      iszero\n      tag_94\n      jumpi\n        /* \"#utility.yul\":1449:1467   */\n      tag_95\n      tag_61\n      jump\t// in\n    tag_95:\n        /* \"#utility.yul\":1381:1469   */\n    tag_94:\n        /* \"#utility.yul\":1489:1499   */\n      dup1\n        /* \"#utility.yul\":1485:1487   */\n      0x40\n        /* \"#utility.yul\":1478:1500   */\n      mstore\n        /* \"#utility.yul\":1268:1506   */\n      pop\n        /* \"#utility.yul\":1225:1506   */\n      pop\n      pop\n      jump\t// out\n        /* \"#utility.yul\":1512:1641   */\n    tag_63:\n        /* \"#utility.yul\":1546:1552   */\n      0x00\n        /* \"#utility.yul\":1573:1593   */\n      tag_97\n      tag_52\n      jump\t// in\n    tag_97:\n        /* \"#utility.yul\":1563:1593   */\n      swap1\n      pop\n        /* \"#utility.yul\":1602:1635   */\n      tag_98\n        /* \"#utility.yul\":1630:1634   */\n      dup3\n        /* \"#utility.yul\":1622:1628   */\n      dup3\n        /* \"#utility.yul\":1602:1635   */\n      tag_62\n      jump\t// in\n    tag_98:\n        /* \"#utility.yul\":1512:1641   */\n      swap2\n      swap1\n      pop\n      jump\t// out\n        /* \"#utility.yul\":1647:1955   */\n    tag_64:\n        /* \"#utility.yul\":1709:1713   */\n      0x00\n        /* \"#utility.yul\":1799:1817   */\n      0xffffffffffffffff\n        /* \"#utility.yul\":1791:1797   */\n      dup3\n        /* \"#utility.yul\":1788:1818   */\n      gt\n        /* \"#utility.yul\":1785:1841   */\n      iszero\n      tag_100\n      jumpi\n        /* \"#utility.yul\":1821:1839   */\n      tag_101\n      tag_61\n      jump\t// in\n    tag_101:\n        /* \"#utility.yul\":1785:1841   */\n    tag_100:\n        /* \"#utility.yul\":1859:1888   */\n      tag_102\n        /* \"#utility.yul\":1881:1887   */\n      dup3\n        /* \"#utility.yul\":1859:1888   */\n      tag_60\n      jump\t// in\n    tag_102:\n        /* \"#utility.yul\":1851:1888   */\n      swap1\n      pop\n        /* \"#utility.yul\":1943:1947   */\n      0x20\n        /* \"#utility.yul\":1937:1941   */\n      dup2\n        /* \"#utility.yul\":1933:1948   */\n      add\n        /* \"#utility.yul\":1925:1948   */\n      swap1\n      pop\n        /* \"#utility.yul\":1647:1955   */\n      swap2\n      swap1\n      pop\n      jump\t// out\n        /* \"#utility.yul\":1961:2109   */\n    tag_65:\n        /* \"#utility.yul\":2059:2065   */\n      dup3\n        /* \"#utility.yul\":2054:2057   */\n      dup2\n        /* \"#utility.yul\":2049:2052   */\n      dup4\n        /* \"#utility.yul\":2036:2066   */\n      calldatacopy\n        /* \"#utility.yul\":2100:2101   */\n      0x00\n        /* \"#utility.yul\":2091:2097   */\n      dup4\n        /* \"#utility.yul\":2086:2089   */\n      dup4\n        /* \"#utility.yul\":2082:2098   */\n      add\n        /* \"#utility.yul\":2075:2102   */\n      mstore\n        /* \"#utility.yul\":1961:2109   */\n      pop\n      pop\n      pop\n      jump\t// out\n        /* \"#utility.yul\":2115:2540   */\n    tag_66:\n        /* \"#utility.yul\":2193:2198   */\n      0x00\n        /* \"#utility.yul\":2218:2284   */\n      tag_105\n        /* \"#utility.yul\":2234:2283   */\n      tag_106\n        /* \"#utility.yul\":2276:2282   */\n      dup5\n        /* \"#utility.yul\":2234:2283   */\n      tag_64\n      jump\t// in\n    tag_106:\n        /* \"#utility.yul\":2218:2284   */\n      tag_63\n      jump\t// in\n    tag_105:\n        /* \"#utility.yul\":2209:2284   */\n      swap1\n      pop\n        /* \"#utility.yul\":2307:2313   */\n      dup3\n        /* \"#utility.yul\":2300:2305   */\n      dup2\n        /* \"#utility.yul\":2293:2314   */\n      mstore\n        /* \"#utility.yul\":2345:2349   */\n      0x20\n        /* \"#utility.yul\":2338:2343   */\n      dup2\n        /* \"#utility.yul\":2334:2350   */\n      add\n        /* \"#utility.yul\":2383:2386   */\n      dup5\n        /* \"#utility.yul\":2374:2380   */\n      dup5\n        /* \"#utility.yul\":2369:2372   */\n      dup5\n        /* \"#utility.yul\":2365:2381   */\n      add\n        /* \"#utility.yul\":2362:2387   */\n      gt\n        /* \"#utility.yul\":2359:2471   */\n      iszero\n      tag_107\n      jumpi\n        /* \"#utility.yul\":2390:2469   */\n      tag_108\n      tag_59\n      jump\t// in\n    tag_108:\n        /* \"#utility.yul\":2359:2471   */\n    tag_107:\n        /* \"#utility.yul\":2480:2534   */\n      tag_109\n        /* \"#utility.yul\":2527:2533   */\n      dup5\n        /* \"#utility.yul\":2522:2525   */\n      dup3\n        /* \"#utility.yul\":2517:2520   */\n      dup6\n        /* \"#utility.yul\":2480:2534   */\n      tag_65\n      jump\t// in\n    tag_109:\n        /* \"#utility.yul\":2199:2540   */\n      pop\n        /* \"#utility.yul\":2115:2540   */\n      swap4\n      swap3\n      pop\n      pop\n      pop\n      jump\t// out\n        /* \"#utility.yul\":2560:2900   */\n    tag_67:\n        /* \"#utility.yul\":2616:2621   */\n      0x00\n        /* \"#utility.yul\":2665:2668   */\n      dup3\n        /* \"#utility.yul\":2658:2662   */\n      0x1f\n        /* \"#utility.yul\":2650:2656   */\n      dup4\n        /* \"#utility.yul\":2646:2663   */\n      add\n        /* \"#utility.yul\":2642:2669   */\n      slt\n        /* \"#utility.yul\":2632:2754   */\n      tag_111\n      jumpi\n        /* \"#utility.yul\":2673:2752   */\n      tag_112\n      tag_58\n      jump\t// in\n    tag_112:\n        /* \"#utility.yul\":2632:2754   */\n    tag_111:\n        /* \"#utility.yul\":2790:2796   */\n      dup2\n        /* \"#utility.yul\":2777:2797   */\n      calldataload\n        /* \"#utility.yul\":2815:2894   */\n      tag_113\n        /* \"#utility.yul\":2890:2893   */\n      dup5\n        /* \"#utility.yul\":2882:2888   */\n      dup3\n        /* \"#utility.yul\":2875:2879   */\n      0x20\n        /* \"#utility.yul\":2867:2873   */\n      dup7\n        /* \"#utility.yul\":2863:2880   */\n      add\n        /* \"#utility.yul\":2815:2894   */\n      tag_66\n      jump\t// in\n    tag_113:\n        /* \"#utility.yul\":2806:2894   */\n      swap2\n      pop\n        /* \"#utility.yul\":2622:2900   */\n      pop\n        /* \"#utility.yul\":2560:2900   */\n      swap3\n      swap2\n      pop\n      pop\n      jump\t// out\n        /* \"#utility.yul\":2906:3558   */\n    tag_6:\n        /* \"#utility.yul\":2983:2989   */\n      0x00\n        /* \"#utility.yul\":2991:2997   */\n      0x00\n        /* \"#utility.yul\":3040:3042   */\n      0x40\n        /* \"#utility.yul\":3028:3037   */\n      dup4\n        /* \"#utility.yul\":3019:3026   */\n      dup6\n        /* \"#utility.yul\":3015:3038   */\n      sub\n        /* \"#utility.yul\":3011:3043   */\n      slt\n        /* \"#utility.yul\":3008:3127   */\n      iszero\n      tag_115\n      jumpi\n        /* \"#utility.yul\":3046:3125   */\n      tag_116\n      tag_53\n      jump\t// in\n    tag_116:\n        /* \"#utility.yul\":3008:3127   */\n    tag_115:\n        /* \"#utility.yul\":3166:3167   */\n      0x00\n        /* \"#utility.yul\":3191:3243   */\n      tag_117\n        /* \"#utility.yul\":3235:3242   */\n      dup6\n        /* \"#utility.yul\":3226:3232   */\n      dup3\n        /* \"#utility.yul\":3215:3224   */\n      dup7\n        /* \"#utility.yul\":3211:3233   */\n      add\n        /* \"#utility.yul\":3191:3243   */\n      tag_57\n      jump\t// in\n    tag_117:\n        /* \"#utility.yul\":3181:3243   */\n      swap3\n      pop\n        /* \"#utility.yul\":3137:3253   */\n      pop\n        /* \"#utility.yul\":3320:3322   */\n      0x20\n        /* \"#utility.yul\":3309:3318   */\n      dup4\n        /* \"#utility.yul\":3305:3323   */\n      add\n        /* \"#utility.yul\":3292:3324   */\n      calldataload\n        /* \"#utility.yul\":3351:3369   */\n      0xffffffffffffffff\n        /* \"#utility.yul\":3343:3349   */\n      dup2\n        /* \"#utility.yul\":3340:3370   */\n      gt\n        /* \"#utility.yul\":3337:3454   */\n      iszero\n      tag_118\n      jumpi\n        /* \"#utility.yul\":3373:3452   */\n      tag_119\n      tag_54\n      jump\t// in\n    tag_119:\n        /* \"#utility.yul\":3337:3454   */\n    tag_118:\n        /* \"#utility.yul\":3478:3541   */\n      tag_120\n        /* \"#utility.yul\":3533:3540   */\n      dup6\n        /* \"#utility.yul\":3524:3530   */\n      dup3\n        /* \"#utility.yul\":3513:3522   */\n      dup7\n        /* \"#utility.yul\":3509:3531   */\n      add\n        /* \"#utility.yul\":3478:3541   */\n      tag_67\n      jump\t// in\n    tag_120:\n        /* \"#utility.yul\":3468:3541   */\n      swap2\n      pop\n        /* \"#utility.yul\":3263:3551   */\n      pop\n        /* \"#utility.yul\":2906:3558   */\n      swap3\n      pop\n      swap3\n      swap1\n      pop\n      jump\t// out\n        /* \"#utility.yul\":3564:3679   */\n    tag_68:\n        /* \"#utility.yul\":3649:3672   */\n      tag_122\n        /* \"#utility.yul\":3666:3671   */\n      dup2\n        /* \"#utility.yul\":3649:3672   */\n      tag_55\n      jump\t// in\n    tag_122:\n        /* \"#utility.yul\":3644:3647   */\n      dup3\n        /* \"#utility.yul\":3637:3673   */\n      mstore\n        /* \"#utility.yul\":3564:3679   */\n      pop\n      pop\n      jump\t// out\n        /* \"#utility.yul\":3685:3903   */\n    tag_9:\n        /* \"#utility.yul\":3776:3780   */\n      0x00\n        /* \"#utility.yul\":3814:3816   */\n      0x20\n        /* \"#utility.yul\":3803:3812   */\n      dup3\n        /* \"#utility.yul\":3799:3817   */\n      add\n        /* \"#utility.yul\":3791:3817   */\n      swap1\n      pop\n        /* \"#utility.yul\":3827:3896   */\n      tag_124\n        /* \"#utility.yul\":3893:3894   */\n      0x00\n        /* \"#utility.yul\":3882:3891   */\n      dup4\n        /* \"#utility.yul\":3878:3895   */\n      add\n        /* \"#utility.yul\":3869:3875   */\n      dup5\n        /* \"#utility.yul\":3827:3896   */\n      tag_68\n      jump\t// in\n    tag_124:\n        /* \"#utility.yul\":3685:3903   */\n      swap3\n      swap2\n      pop\n      pop\n      jump\t// out\n        /* \"#utility.yul\":3909:4089   */\n    tag_17:\n        /* \"#utility.yul\":3957:4034   */\n      0x4e487b7100000000000000000000000000000000000000000000000000000000\n        /* \"#utility.yul\":3954:3955   */\n      0x00\n        /* \"#utility.yul\":3947:4035   */\n      mstore\n        /* \"#utility.yul\":4054:4058   */\n      0x21\n        /* \"#utility.yul\":4051:4052   */\n      0x04\n        /* \"#utility.yul\":4044:4059   */\n      mstore\n        /* \"#utility.yul\":4078:4082   */\n      0x24\n        /* \"#utility.yul\":4075:4076   */\n      0x00\n        /* \"#utility.yul\":4068:4083   */\n      revert\n        /* \"#utility.yul\":4095:4264   */\n    tag_69:\n        /* \"#utility.yul\":4179:4190   */\n      0x00\n        /* \"#utility.yul\":4213:4219   */\n      dup3\n        /* \"#utility.yul\":4208:4211   */\n      dup3\n        /* \"#utility.yul\":4201:4220   */\n      mstore\n        /* \"#utility.yul\":4253:4257   */\n      0x20\n        /* \"#utility.yul\":4248:4251   */\n      dup3\n        /* \"#utility.yul\":4244:4258   */\n      add\n        /* \"#utility.yul\":4229:4258   */\n      swap1\n      pop\n        /* \"#utility.yul\":4095:4264   */\n      swap3\n      swap2\n      pop\n      pop\n      jump\t// out\n        /* \"#utility.yul\":4270:4491   */\n    tag_70:\n        /* \"#utility.yul\":4410:4444   */\n      0x496e76616c696420756e697420636f6e76657273696f6e207265717565737465\n        /* \"#utility.yul\":4406:4407   */\n      0x00\n        /* \"#utility.yul\":4398:4404   */\n      dup3\n        /* \"#utility.yul\":4394:4408   */\n      add\n        /* \"#utility.yul\":4387:4445   */\n      mstore\n        /* \"#utility.yul\":4479:4483   */\n      0x642e000000000000000000000000000000000000000000000000000000000000\n        /* \"#utility.yul\":4474:4476   */\n      0x20\n        /* \"#utility.yul\":4466:4472   */\n      dup3\n        /* \"#utility.yul\":4462:4477   */\n      add\n        /* \"#utility.yul\":4455:4484   */\n      mstore\n        /* \"#utility.yul\":4270:4491   */\n      pop\n      jump\t// out\n        /* \"#utility.yul\":4497:4863   */\n    tag_71:\n        /* \"#utility.yul\":4639:4642   */\n      0x00\n        /* \"#utility.yul\":4660:4727   */\n      tag_129\n        /* \"#utility.yul\":4724:4726   */\n      0x22\n        /* \"#utility.yul\":4719:4722   */\n      dup4\n        /* \"#utility.yul\":4660:4727   */\n      tag_69\n      jump\t// in\n    tag_129:\n        /* \"#utility.yul\":4653:4727   */\n      swap2\n      pop\n        /* \"#utility.yul\":4736:4829   */\n      tag_130\n        /* \"#utility.yul\":4825:4828   */\n      dup3\n        /* \"#utility.yul\":4736:4829   */\n      tag_70\n      jump\t// in\n    tag_130:\n        /* \"#utility.yul\":4854:4856   */\n      0x40\n        /* \"#utility.yul\":4849:4852   */\n      dup3\n        /* \"#utility.yul\":4845:4857   */\n      add\n        /* \"#utility.yul\":4838:4857   */\n      swap1\n      pop\n        /* \"#utility.yul\":4497:4863   */\n      swap2\n      swap1\n      pop\n      jump\t// out\n        /* \"#utility.yul\":4869:5288   */\n    tag_23:\n        /* \"#utility.yul\":5035:5039   */\n      0x00\n        /* \"#utility.yul\":5073:5075   */\n      0x20\n        /* \"#utility.yul\":5062:5071   */\n      dup3\n        /* \"#utility.yul\":5058:5076   */\n      add\n        /* \"#utility.yul\":5050:5076   */\n      swap1\n      pop\n        /* \"#utility.yul\":5122:5131   */\n      dup2\n        /* \"#utility.yul\":5116:5120   */\n      dup2\n        /* \"#utility.yul\":5112:5132   */\n      sub\n        /* \"#utility.yul\":5108:5109   */\n      0x00\n        /* \"#utility.yul\":5097:5106   */\n      dup4\n        /* \"#utility.yul\":5093:5110   */\n      add\n        /* \"#utility.yul\":5086:5133   */\n      mstore\n        /* \"#utility.yul\":5150:5281   */\n      tag_132\n        /* \"#utility.yul\":5276:5280   */\n      dup2\n        /* \"#utility.yul\":5150:5281   */\n      tag_71\n      jump\t// in\n    tag_132:\n        /* \"#utility.yul\":5142:5281   */\n      swap1\n      pop\n        /* \"#utility.yul\":4869:5288   */\n      swap2\n      swap1\n      pop\n      jump\t// out\n        /* \"#utility.yul\":5294:5474   */\n    tag_72:\n        /* \"#utility.yul\":5342:5419   */\n      0x4e487b7100000000000000000000000000000000000000000000000000000000\n        /* \"#utility.yul\":5339:5340   */\n      0x00\n        /* \"#utility.yul\":5332:5420   */\n      mstore\n        /* \"#utility.yul\":5439:5443   */\n      0x11\n        /* \"#utility.yul\":5436:5437   */\n      0x04\n        /* \"#utility.yul\":5429:5444   */\n      mstore\n        /* \"#utility.yul\":5463:5467   */\n      0x24\n        /* \"#utility.yul\":5460:5461   */\n      0x00\n        /* \"#utility.yul\":5453:5468   */\n      revert\n        /* \"#utility.yul\":5480:6036   */\n    tag_27:\n        /* \"#utility.yul\":5519:5526   */\n      0x00\n        /* \"#utility.yul\":5542:5561   */\n      tag_135\n        /* \"#utility.yul\":5559:5560   */\n      dup3\n        /* \"#utility.yul\":5542:5561   */\n      tag_55\n      jump\t// in\n    tag_135:\n        /* \"#utility.yul\":5537:5561   */\n      swap2\n      pop\n        /* \"#utility.yul\":5575:5594   */\n      tag_136\n        /* \"#utility.yul\":5592:5593   */\n      dup4\n        /* \"#utility.yul\":5575:5594   */\n      tag_55\n      jump\t// in\n    tag_136:\n        /* \"#utility.yul\":5570:5594   */\n      swap3\n      pop\n        /* \"#utility.yul\":5629:5630   */\n      dup3\n        /* \"#utility.yul\":5626:5627   */\n      dup3\n        /* \"#utility.yul\":5622:5631   */\n      mul\n        /* \"#utility.yul\":5651:5680   */\n      tag_137\n        /* \"#utility.yul\":5668:5679   */\n      dup2\n        /* \"#utility.yul\":5651:5680   */\n      tag_55\n      jump\t// in\n    tag_137:\n        /* \"#utility.yul\":5640:5680   */\n      swap2\n      pop\n        /* \"#utility.yul\":5738:5804   */\n      0x8000000000000000000000000000000000000000000000000000000000000000\n        /* \"#utility.yul\":5735:5736   */\n      dup5\n        /* \"#utility.yul\":5732:5805   */\n      eq\n        /* \"#utility.yul\":5728:5729   */\n      0x00\n        /* \"#utility.yul\":5725:5726   */\n      dup5\n        /* \"#utility.yul\":5721:5730   */\n      slt\n        /* \"#utility.yul\":5717:5806   */\n      and\n        /* \"#utility.yul\":5714:5829   */\n      iszero\n      tag_138\n      jumpi\n        /* \"#utility.yul\":5809:5827   */\n      tag_139\n      tag_72\n      jump\t// in\n    tag_139:\n        /* \"#utility.yul\":5714:5829   */\n    tag_138:\n        /* \"#utility.yul\":5979:5980   */\n      dup3\n        /* \"#utility.yul\":5970:5977   */\n      dup3\n        /* \"#utility.yul\":5965:5981   */\n      sdiv\n        /* \"#utility.yul\":5962:5963   */\n      dup5\n        /* \"#utility.yul\":5959:5982   */\n      eq\n        /* \"#utility.yul\":5939:5940   */\n      dup4\n        /* \"#utility.yul\":5932:5941   */\n      iszero\n        /* \"#utility.yul\":5912:5996   */\n      or\n        /* \"#utility.yul\":5889:6029   */\n      tag_140\n      jumpi\n        /* \"#utility.yul\":6009:6027   */\n      tag_141\n      tag_72\n      jump\t// in\n    tag_141:\n        /* \"#utility.yul\":5889:6029   */\n    tag_140:\n        /* \"#utility.yul\":5527:6036   */\n      pop\n        /* \"#utility.yul\":5480:6036   */\n      swap3\n      swap2\n      pop\n      pop\n      jump\t// out\n        /* \"#utility.yul\":6042:6222   */\n    tag_73:\n        /* \"#utility.yul\":6090:6167   */\n      0x4e487b7100000000000000000000000000000000000000000000000000000000\n        /* \"#utility.yul\":6087:6088   */\n      0x00\n        /* \"#utility.yul\":6080:6168   */\n      mstore\n        /* \"#utility.yul\":6187:6191   */\n      0x12\n        /* \"#utility.yul\":6184:6185   */\n      0x04\n        /* \"#utility.yul\":6177:6192   */\n      mstore\n        /* \"#utility.yul\":6211:6215   */\n      0x24\n        /* \"#utility.yul\":6208:6209   */\n      0x00\n        /* \"#utility.yul\":6201:6216   */\n      revert\n        /* \"#utility.yul\":6228:6613   */\n    tag_29:\n        /* \"#utility.yul\":6267:6268   */\n      0x00\n        /* \"#utility.yul\":6284:6303   */\n      tag_144\n        /* \"#utility.yul\":6301:6302   */\n      dup3\n        /* \"#utility.yul\":6284:6303   */\n      tag_55\n      jump\t// in\n    tag_144:\n        /* \"#utility.yul\":6279:6303   */\n      swap2\n      pop\n        /* \"#utility.yul\":6317:6336   */\n      tag_145\n        /* \"#utility.yul\":6334:6335   */\n      dup4\n        /* \"#utility.yul\":6317:6336   */\n      tag_55\n      jump\t// in\n    tag_145:\n        /* \"#utility.yul\":6312:6336   */\n      swap3\n      pop\n        /* \"#utility.yul\":6355:6356   */\n      dup3\n        /* \"#utility.yul\":6345:6380   */\n      tag_146\n      jumpi\n        /* \"#utility.yul\":6360:6378   */\n      tag_147\n      tag_73\n      jump\t// in\n    tag_147:\n        /* \"#utility.yul\":6345:6380   */\n    tag_146:\n        /* \"#utility.yul\":6546:6547   */\n      0x01\n        /* \"#utility.yul\":6543:6544   */\n      0x00\n        /* \"#utility.yul\":6539:6548   */\n      sub\n        /* \"#utility.yul\":6536:6537   */\n      dup4\n        /* \"#utility.yul\":6533:6549   */\n      eq\n        /* \"#utility.yul\":6452:6518   */\n      0x8000000000000000000000000000000000000000000000000000000000000000\n        /* \"#utility.yul\":6449:6450   */\n      dup4\n        /* \"#utility.yul\":6446:6519   */\n      eq\n        /* \"#utility.yul\":6429:6559   */\n      and\n        /* \"#utility.yul\":6426:6582   */\n      iszero\n      tag_148\n      jumpi\n        /* \"#utility.yul\":6562:6580   */\n      tag_149\n      tag_72\n      jump\t// in\n    tag_149:\n        /* \"#utility.yul\":6426:6582   */\n    tag_148:\n        /* \"#utility.yul\":6605:6606   */\n      dup3\n        /* \"#utility.yul\":6602:6603   */\n      dup3\n        /* \"#utility.yul\":6597:6607   */\n      sdiv\n        /* \"#utility.yul\":6592:6607   */\n      swap1\n      pop\n        /* \"#utility.yul\":6228:6613   */\n      swap3\n      swap2\n      pop\n      pop\n      jump\t// out\n        /* \"#utility.yul\":6619:6994   */\n    tag_31:\n        /* \"#utility.yul\":6658:6661   */\n      0x00\n        /* \"#utility.yul\":6677:6696   */\n      tag_151\n        /* \"#utility.yul\":6694:6695   */\n      dup3\n        /* \"#utility.yul\":6677:6696   */\n      tag_55\n      jump\t// in\n    tag_151:\n        /* \"#utility.yul\":6672:6696   */\n      swap2\n      pop\n        /* \"#utility.yul\":6710:6729   */\n      tag_152\n        /* \"#utility.yul\":6727:6728   */\n      dup4\n        /* \"#utility.yul\":6710:6729   */\n      tag_55\n      jump\t// in\n    tag_152:\n        /* \"#utility.yul\":6705:6729   */\n      swap3\n      pop\n        /* \"#utility.yul\":6752:6753   */\n      dup3\n        /* \"#utility.yul\":6749:6750   */\n      dup3\n        /* \"#utility.yul\":6745:6754   */\n      add\n        /* \"#utility.yul\":6738:6754   */\n      swap1\n      pop\n        /* \"#utility.yul\":6950:6951   */\n      dup3\n        /* \"#utility.yul\":6945:6948   */\n      dup2\n        /* \"#utility.yul\":6941:6952   */\n      slt\n        /* \"#utility.yul\":6934:6953   */\n      iszero\n        /* \"#utility.yul\":6930:6931   */\n      0x00\n        /* \"#utility.yul\":6927:6928   */\n      dup4\n        /* \"#utility.yul\":6923:6932   */\n      slt\n        /* \"#utility.yul\":6919:6954   */\n      and\n        /* \"#utility.yul\":6902:6903   */\n      dup4\n        /* \"#utility.yul\":6897:6900   */\n      dup3\n        /* \"#utility.yul\":6893:6904   */\n      slt\n        /* \"#utility.yul\":6888:6889   */\n      0x00\n        /* \"#utility.yul\":6885:6886   */\n      dup5\n        /* \"#utility.yul\":6881:6890   */\n      slt\n        /* \"#utility.yul\":6874:6891   */\n      iszero\n        /* \"#utility.yul\":6870:6905   */\n      and\n        /* \"#utility.yul\":6854:6964   */\n      or\n        /* \"#utility.yul\":6851:6987   */\n      iszero\n      tag_153\n      jumpi\n        /* \"#utility.yul\":6967:6985   */\n      tag_154\n      tag_72\n      jump\t// in\n    tag_154:\n        /* \"#utility.yul\":6851:6987   */\n    tag_153:\n        /* \"#utility.yul\":6619:6994   */\n      swap3\n      swap2\n      pop\n      pop\n      jump\t// out\n        /* \"#utility.yul\":7000:7372   */\n    tag_34:\n        /* \"#utility.yul\":7039:7043   */\n      0x00\n        /* \"#utility.yul\":7059:7078   */\n      tag_156\n        /* \"#utility.yul\":7076:7077   */\n      dup3\n        /* \"#utility.yul\":7059:7078   */\n      tag_55\n      jump\t// in\n    tag_156:\n        /* \"#utility.yul\":7054:7078   */\n      swap2\n      pop\n        /* \"#utility.yul\":7092:7111   */\n      tag_157\n        /* \"#utility.yul\":7109:7110   */\n      dup4\n        /* \"#utility.yul\":7092:7111   */\n      tag_55\n      jump\t// in\n    tag_157:\n        /* \"#utility.yul\":7087:7111   */\n      swap3\n      pop\n        /* \"#utility.yul\":7135:7136   */\n      dup3\n        /* \"#utility.yul\":7132:7133   */\n      dup3\n        /* \"#utility.yul\":7128:7137   */\n      sub\n        /* \"#utility.yul\":7120:7137   */\n      swap1\n      pop\n        /* \"#utility.yul\":7329:7330   */\n      dup2\n        /* \"#utility.yul\":7323:7327   */\n      dup2\n        /* \"#utility.yul\":7319:7331   */\n      slt\n        /* \"#utility.yul\":7315:7316   */\n      0x00\n        /* \"#utility.yul\":7312:7313   */\n      dup5\n        /* \"#utility.yul\":7308:7317   */\n      slt\n        /* \"#utility.yul\":7304:7332   */\n      and\n        /* \"#utility.yul\":7287:7288   */\n      dup3\n        /* \"#utility.yul\":7281:7285   */\n      dup3\n        /* \"#utility.yul\":7277:7289   */\n      sgt\n        /* \"#utility.yul\":7272:7273   */\n      0x00\n        /* \"#utility.yul\":7269:7270   */\n      dup6\n        /* \"#utility.yul\":7265:7274   */\n      slt\n        /* \"#utility.yul\":7258:7275   */\n      iszero\n        /* \"#utility.yul\":7254:7290   */\n      and\n        /* \"#utility.yul\":7238:7342   */\n      or\n        /* \"#utility.yul\":7235:7365   */\n      iszero\n      tag_158\n      jumpi\n        /* \"#utility.yul\":7345:7363   */\n      tag_159\n      tag_72\n      jump\t// in\n    tag_159:\n        /* \"#utility.yul\":7235:7365   */\n    tag_158:\n        /* \"#utility.yul\":7000:7372   */\n      swap3\n      swap2\n      pop\n      pop\n      jump\t// out\n        /* \"#utility.yul\":7378:7560   */\n    tag_74:\n        /* \"#utility.yul\":7518:7552   */\n      0x556e6974206d75737420626520612073696e676c65206368617261637465722e\n        /* \"#utility.yul\":7514:7515   */\n      0x00\n        /* \"#utility.yul\":7506:7512   */\n      dup3\n        /* \"#utility.yul\":7502:7516   */\n      add\n        /* \"#utility.yul\":7495:7553   */\n      mstore\n        /* \"#utility.yul\":7378:7560   */\n      pop\n      jump\t// out\n        /* \"#utility.yul\":7566:7932   */\n    tag_75:\n        /* \"#utility.yul\":7708:7711   */\n      0x00\n        /* \"#utility.yul\":7729:7796   */\n      tag_162\n        /* \"#utility.yul\":7793:7795   */\n      0x20\n        /* \"#utility.yul\":7788:7791   */\n      dup4\n        /* \"#utility.yul\":7729:7796   */\n      tag_69\n      jump\t// in\n    tag_162:\n        /* \"#utility.yul\":7722:7796   */\n      swap2\n      pop\n        /* \"#utility.yul\":7805:7898   */\n      tag_163\n        /* \"#utility.yul\":7894:7897   */\n      dup3\n        /* \"#utility.yul\":7805:7898   */\n      tag_74\n      jump\t// in\n    tag_163:\n        /* \"#utility.yul\":7923:7925   */\n      0x20\n        /* \"#utility.yul\":7918:7921   */\n      dup3\n        /* \"#utility.yul\":7914:7926   */\n      add\n        /* \"#utility.yul\":7907:7926   */\n      swap1\n      pop\n        /* \"#utility.yul\":7566:7932   */\n      swap2\n      swap1\n      pop\n      jump\t// out\n        /* \"#utility.yul\":7938:8357   */\n    tag_40:\n        /* \"#utility.yul\":8104:8108   */\n      0x00\n        /* \"#utility.yul\":8142:8144   */\n      0x20\n        /* \"#utility.yul\":8131:8140   */\n      dup3\n        /* \"#utility.yul\":8127:8145   */\n      add\n        /* \"#utility.yul\":8119:8145   */\n      swap1\n      pop\n        /* \"#utility.yul\":8191:8200   */\n      dup2\n        /* \"#utility.yul\":8185:8189   */\n      dup2\n        /* \"#utility.yul\":8181:8201   */\n      sub\n        /* \"#utility.yul\":8177:8178   */\n      0x00\n        /* \"#utility.yul\":8166:8175   */\n      dup4\n        /* \"#utility.yul\":8162:8179   */\n      add\n        /* \"#utility.yul\":8155:8202   */\n      mstore\n        /* \"#utility.yul\":8219:8350   */\n      tag_165\n        /* \"#utility.yul\":8345:8349   */\n      dup2\n        /* \"#utility.yul\":8219:8350   */\n      tag_75\n      jump\t// in\n    tag_165:\n        /* \"#utility.yul\":8211:8350   */\n      swap1\n      pop\n        /* \"#utility.yul\":7938:8357   */\n      swap2\n      swap1\n      pop\n      jump\t// out\n        /* \"#utility.yul\":8363:8543   */\n    tag_43:\n        /* \"#utility.yul\":8411:8488   */\n      0x4e487b7100000000000000000000000000000000000000000000000000000000\n        /* \"#utility.yul\":8408:8409   */\n      0x00\n        /* \"#utility.yul\":8401:8489   */\n      mstore\n        /* \"#utility.yul\":8508:8512   */\n      0x32\n        /* \"#utility.yul\":8505:8506   */\n      0x04\n        /* \"#utility.yul\":8498:8513   */\n      mstore\n        /* \"#utility.yul\":8532:8536   */\n      0x24\n        /* \"#utility.yul\":8529:8530   */\n      0x00\n        /* \"#utility.yul\":8522:8537   */\n      revert\n        /* \"#utility.yul\":8549:8721   */\n    tag_76:\n        /* \"#utility.yul\":8689:8713   */\n      0x496e76616c696420756e69742070726f76696465642e00000000000000000000\n        /* \"#utility.yul\":8685:8686   */\n      0x00\n        /* \"#utility.yul\":8677:8683   */\n      dup3\n        /* \"#utility.yul\":8673:8687   */\n      add\n        /* \"#utility.yul\":8666:8714   */\n      mstore\n        /* \"#utility.yul\":8549:8721   */\n      pop\n      jump\t// out\n        /* \"#utility.yul\":8727:9093   */\n    tag_77:\n        /* \"#utility.yul\":8869:8872   */\n      0x00\n        /* \"#utility.yul\":8890:8957   */\n      tag_169\n        /* \"#utility.yul\":8954:8956   */\n      0x16\n        /* \"#utility.yul\":8949:8952   */\n      dup4\n        /* \"#utility.yul\":8890:8957   */\n      tag_69\n      jump\t// in\n    tag_169:\n        /* \"#utility.yul\":8883:8957   */\n      swap2\n      pop\n        /* \"#utility.yul\":8966:9059   */\n      tag_170\n        /* \"#utility.yul\":9055:9058   */\n      dup3\n        /* \"#utility.yul\":8966:9059   */\n      tag_76\n      jump\t// in\n    tag_170:\n        /* \"#utility.yul\":9084:9086   */\n      0x20\n        /* \"#utility.yul\":9079:9082   */\n      dup3\n        /* \"#utility.yul\":9075:9087   */\n      add\n        /* \"#utility.yul\":9068:9087   */\n      swap1\n      pop\n        /* \"#utility.yul\":8727:9093   */\n      swap2\n      swap1\n      pop\n      jump\t// out\n        /* \"#utility.yul\":9099:9518   */\n    tag_49:\n        /* \"#utility.yul\":9265:9269   */\n      0x00\n        /* \"#utility.yul\":9303:9305   */\n      0x20\n        /* \"#utility.yul\":9292:9301   */\n      dup3\n        /* \"#utility.yul\":9288:9306   */\n      add\n        /* \"#utility.yul\":9280:9306   */\n      swap1\n      pop\n        /* \"#utility.yul\":9352:9361   */\n      dup2\n        /* \"#utility.yul\":9346:9350   */\n      dup2\n        /* \"#utility.yul\":9342:9362   */\n      sub\n        /* \"#utility.yul\":9338:9339   */\n      0x00\n        /* \"#utility.yul\":9327:9336   */\n      dup4\n        /* \"#utility.yul\":9323:9340   */\n      add\n        /* \"#utility.yul\":9316:9363   */\n      mstore\n        /* \"#utility.yul\":9380:9511   */\n      tag_172\n        /* \"#utility.yul\":9506:9510   */\n      dup2\n        /* \"#utility.yul\":9380:9511   */\n      tag_77\n      jump\t// in\n    tag_172:\n        /* \"#utility.yul\":9372:9511   */\n      swap1\n      pop\n        /* \"#utility.yul\":9099:9518   */\n      swap2\n      swap1\n      pop\n      jump\t// out\n        /* \"#utility.yul\":9524:9704   */\n    tag_51:\n        /* \"#utility.yul\":9572:9649   */\n      0x4e487b7100000000000000000000000000000000000000000000000000000000\n        /* \"#utility.yul\":9569:9570   */\n      0x00\n        /* \"#utility.yul\":9562:9650   */\n      mstore\n        /* \"#utility.yul\":9669:9673   */\n      0x51\n        /* \"#utility.yul\":9666:9667   */\n      0x04\n        /* \"#utility.yul\":9659:9674   */\n      mstore\n        /* \"#utility.yul\":9693:9697   */\n      0x24\n        /* \"#utility.yul\":9690:9691   */\n      0x00\n        /* \"#utility.yul\":9683:9698   */\n      revert\n\n    auxdata: 0xa264697066735822122007395b48af785a4a4b23f50f3373594dc094f71e24603638f1b977b25ae13d0764736f6c634300081c0033\n}\n",
				"bytecode": {
					"linkReferences": {},
					"object": "608060405234801561000f575f5ffd5b50604051806040016040528060011515815260200161016f60201b61015b1767ffffffffffffffff168152505f5f6001808111156100505761004f6101c9565b5b6001811115610062576100616101c9565b5b81526020019081526020015f205f820151815f015f6101000a81548160ff0219169083151502179055506020820151815f0160016101000a81548167ffffffffffffffff021916908367ffffffffffffffff160217905550905050604051806040016040528060011515815260200161019c60201b6101881767ffffffffffffffff168152505f5f5f60018111156100fd576100fc6101c9565b5b600181111561010f5761010e6101c9565b5b81526020019081526020015f205f820151815f015f6101000a81548160ff0219169083151502179055506020820151815f0160016101000a81548167ffffffffffffffff021916908367ffffffffffffffff1602179055509050506103b8565b5f60206005600984610181919061022c565b61018b91906102cf565b6101959190610337565b9050919050565b5f600960056020846101ae9190610378565b6101b8919061022c565b6101c291906102cf565b9050919050565b7f4e487b71000000000000000000000000000000000000000000000000000000005f52602160045260245ffd5b5f819050919050565b7f4e487b71000000000000000000000000000000000000000000000000000000005f52601160045260245ffd5b5f610236826101f6565b9150610241836101f6565b925082820261024f816101f6565b91507f800000000000000000000000000000000000000000000000000000000000000084145f84121615610286576102856101ff565b5b828205841483151761029b5761029a6101ff565b5b5092915050565b7f4e487b71000000000000000000000000000000000000000000000000000000005f52601260045260245ffd5b5f6102d9826101f6565b91506102e4836101f6565b9250826102f4576102f36102a2565b5b60015f0383147f80000000000000000000000000000000000000000000000000000000000000008314161561032c5761032b6101ff565b5b828205905092915050565b5f610341826101f6565b915061034c836101f6565b92508282019050828112155f8312168382125f841215161715610372576103716101ff565b5b92915050565b5f610382826101f6565b915061038d836101f6565b925082820390508181125f8412168282135f8512151617156103b2576103b16101ff565b5b92915050565b6108f6806103c55f395ff3fe608060405234801561000f575f5ffd5b5060043610610029575f3560e01c8063183b33721461002d575b5f5ffd5b61004760048036038101906100429190610490565b61005d565b60405161005491906104f9565b60405180910390f35b5f5f610068836101b5565b90505f5f5f8360018111156100805761007f610512565b5b600181111561009257610091610512565b5b81526020019081526020015f206040518060400160405290815f82015f9054906101000a900460ff161515151581526020015f820160019054906101000a90048015610306021767ffffffffffffffff1667ffffffffffffffff1667ffffffffffffffff16815250509050805f0151610140576040517f08c379a0000000000000000000000000000000000000000000000000000000008152600401610137906105bf565b60405180910390fd5b61015185826020015163ffffffff16565b9250505092915050565b5f6020600560098461016d919061060a565b61017791906106ad565b6101819190610715565b9050919050565b5f6009600560208461019a9190610756565b6101a4919061060a565b6101ae91906106ad565b9050919050565b5f5f82905060018151146101fe576040517f08c379a00000000000000000000000000000000000000000000000000000000081526004016101f5906107e0565b60405180910390fd5b5f815f81518110610212576102116107fe565b5b602001015160f81c60f81b90507f4300000000000000000000000000000000000000000000000000000000000000817effffffffffffffffffffffffffffffffffffffffffffffffffffffffffffff19160361027357600192505050610301565b7f4600000000000000000000000000000000000000000000000000000000000000817effffffffffffffffffffffffffffffffffffffffffffffffffffffffffffff1916036102c6575f92505050610301565b6040517f08c379a00000000000000000000000000000000000000000000000000000000081526004016102f890610875565b60405180910390fd5b919050565b61030e610893565b565b5f604051905090565b5f5ffd5b5f5ffd5b5f819050919050565b61033381610321565b811461033d575f5ffd5b50565b5f8135905061034e8161032a565b92915050565b5f5ffd5b5f5ffd5b5f601f19601f8301169050919050565b7f4e487b71000000000000000000000000000000000000000000000000000000005f52604160045260245ffd5b6103a28261035c565b810181811067ffffffffffffffff821117156103c1576103c061036c565b5b80604052505050565b5f6103d3610310565b90506103df8282610399565b919050565b5f67ffffffffffffffff8211156103fe576103fd61036c565b5b6104078261035c565b9050602081019050919050565b828183375f83830152505050565b5f61043461042f846103e4565b6103ca565b9050828152602081018484840111156104505761044f610358565b5b61045b848285610414565b509392505050565b5f82601f83011261047757610476610354565b5b8135610487848260208601610422565b91505092915050565b5f5f604083850312156104a6576104a5610319565b5b5f6104b385828601610340565b925050602083013567ffffffffffffffff8111156104d4576104d361031d565b5b6104e085828601610463565b9150509250929050565b6104f381610321565b82525050565b5f60208201905061050c5f8301846104ea565b92915050565b7f4e487b71000000000000000000000000000000000000000000000000000000005f52602160045260245ffd5b5f82825260208201905092915050565b7f496e76616c696420756e697420636f6e76657273696f6e2072657175657374655f8201527f642e000000000000000000000000000000000000000000000000000000000000602082015250565b5f6105a960228361053f565b91506105b48261054f565b604082019050919050565b5f6020820190508181035f8301526105d68161059d565b9050919050565b7f4e487b71000000000000000000000000000000000000000000000000000000005f52601160045260245ffd5b5f61061482610321565b915061061f83610321565b925082820261062d81610321565b91507f800000000000000000000000000000000000000000000000000000000000000084145f84121615610664576106636105dd565b5b8282058414831517610679576106786105dd565b5b5092915050565b7f4e487b71000000000000000000000000000000000000000000000000000000005f52601260045260245ffd5b5f6106b782610321565b91506106c283610321565b9250826106d2576106d1610680565b5b60015f0383147f80000000000000000000000000000000000000000000000000000000000000008314161561070a576107096105dd565b5b828205905092915050565b5f61071f82610321565b915061072a83610321565b92508282019050828112155f8312168382125f8412151617156107505761074f6105dd565b5b92915050565b5f61076082610321565b915061076b83610321565b925082820390508181125f8412168282135f8512151617156107905761078f6105dd565b5b92915050565b7f556e6974206d75737420626520612073696e676c65206368617261637465722e5f82015250565b5f6107ca60208361053f565b91506107d582610796565b602082019050919050565b5f6020820190508181035f8301526107f7816107be565b9050919050565b7f4e487b71000000000000000000000000000000000000000000000000000000005f52603260045260245ffd5b7f496e76616c696420756e69742070726f76696465642e000000000000000000005f82015250565b5f61085f60168361053f565b915061086a8261082b565b602082019050919050565b5f6020820190508181035f83015261088c81610853565b9050919050565b7f4e487b71000000000000000000000000000000000000000000000000000000005f52605160045260245ffdfea264697066735822122007395b48af785a4a4b23f50f3373594dc094f71e24603638f1b977b25ae13d0764736f6c634300081c0033",
					"opcodes": "PUSH1 0x80 PUSH1 0x40 MSTORE CALLVALUE DUP1 ISZERO PUSH2 0xF JUMPI PUSH0 PUSH0 REVERT JUMPDEST POP PUSH1 0x40 MLOAD DUP1 PUSH1 0x40 ADD PUSH1 0x40 MSTORE DUP1 PUSH1 0x1 ISZERO ISZERO DUP2 MSTORE PUSH1 0x20 ADD PUSH2 0x16F PUSH1 0x20 SHL PUSH2 0x15B OR PUSH8 0xFFFFFFFFFFFFFFFF AND DUP2 MSTORE POP PUSH0 PUSH0 PUSH1 0x1 DUP1 DUP2 GT ISZERO PUSH2 0x50 JUMPI PUSH2 0x4F PUSH2 0x1C9 JUMP JUMPDEST JUMPDEST PUSH1 0x1 DUP2 GT ISZERO PUSH2 0x62 JUMPI PUSH2 0x61 PUSH2 0x1C9 JUMP JUMPDEST JUMPDEST DUP2 MSTORE PUSH1 0x20 ADD SWAP1 DUP2 MSTORE PUSH1 0x20 ADD PUSH0 KECCAK256 PUSH0 DUP3 ADD MLOAD DUP2 PUSH0 ADD PUSH0 PUSH2 0x100 EXP DUP2 SLOAD DUP2 PUSH1 0xFF MUL NOT AND SWAP1 DUP4 ISZERO ISZERO MUL OR SWAP1 SSTORE POP PUSH1 0x20 DUP3 ADD MLOAD DUP2 PUSH0 ADD PUSH1 0x1 PUSH2 0x100 EXP DUP2 SLOAD DUP2 PUSH8 0xFFFFFFFFFFFFFFFF MUL NOT AND SWAP1 DUP4 PUSH8 0xFFFFFFFFFFFFFFFF AND MUL OR SWAP1 SSTORE POP SWAP1 POP POP PUSH1 0x40 MLOAD DUP1 PUSH1 0x40 ADD PUSH1 0x40 MSTORE DUP1 PUSH1 0x1 ISZERO ISZERO DUP2 MSTORE PUSH1 0x20 ADD PUSH2 0x19C PUSH1 0x20 SHL PUSH2 0x188 OR PUSH8 0xFFFFFFFFFFFFFFFF AND DUP2 MSTORE POP PUSH0 PUSH0 PUSH0 PUSH1 0x1 DUP2 GT ISZERO PUSH2 0xFD JUMPI PUSH2 0xFC PUSH2 0x1C9 JUMP JUMPDEST JUMPDEST PUSH1 0x1 DUP2 GT ISZERO PUSH2 0x10F JUMPI PUSH2 0x10E PUSH2 0x1C9 JUMP JUMPDEST JUMPDEST DUP2 MSTORE PUSH1 0x20 ADD SWAP1 DUP2 MSTORE PUSH1 0x20 ADD PUSH0 KECCAK256 PUSH0 DUP3 ADD MLOAD DUP2 PUSH0 ADD PUSH0 PUSH2 0x100 EXP DUP2 SLOAD DUP2 PUSH1 0xFF MUL NOT AND SWAP1 DUP4 ISZERO ISZERO MUL OR SWAP1 SSTORE POP PUSH1 0x20 DUP3 ADD MLOAD DUP2 PUSH0 ADD PUSH1 0x1 PUSH2 0x100 EXP DUP2 SLOAD DUP2 PUSH8 0xFFFFFFFFFFFFFFFF MUL NOT AND SWAP1 DUP4 PUSH8 0xFFFFFFFFFFFFFFFF AND MUL OR SWAP1 SSTORE POP SWAP1 POP POP PUSH2 0x3B8 JUMP JUMPDEST PUSH0 PUSH1 0x20 PUSH1 0x5 PUSH1 0x9 DUP5 PUSH2 0x181 SWAP2 SWAP1 PUSH2 0x22C JUMP JUMPDEST PUSH2 0x18B SWAP2 SWAP1 PUSH2 0x2CF JUMP JUMPDEST PUSH2 0x195 SWAP2 SWAP1 PUSH2 0x337 JUMP JUMPDEST SWAP1 POP SWAP2 SWAP1 POP JUMP JUMPDEST PUSH0 PUSH1 0x9 PUSH1 0x5 PUSH1 0x20 DUP5 PUSH2 0x1AE SWAP2 SWAP1 PUSH2 0x378 JUMP JUMPDEST PUSH2 0x1B8 SWAP2 SWAP1 PUSH2 0x22C JUMP JUMPDEST PUSH2 0x1C2 SWAP2 SWAP1 PUSH2 0x2CF JUMP JUMPDEST SWAP1 POP SWAP2 SWAP1 POP JUMP JUMPDEST PUSH32 0x4E487B7100000000000000000000000000000000000000000000000000000000 PUSH0 MSTORE PUSH1 0x21 PUSH1 0x4 MSTORE PUSH1 0x24 PUSH0 REVERT JUMPDEST PUSH0 DUP2 SWAP1 POP SWAP2 SWAP1 POP JUMP JUMPDEST PUSH32 0x4E487B7100000000000000000000000000000000000000000000000000000000 PUSH0 MSTORE PUSH1 0x11 PUSH1 0x4 MSTORE PUSH1 0x24 PUSH0 REVERT JUMPDEST PUSH0 PUSH2 0x236 DUP3 PUSH2 0x1F6 JUMP JUMPDEST SWAP2 POP PUSH2 0x241 DUP4 PUSH2 0x1F6 JUMP JUMPDEST SWAP3 POP DUP3 DUP3 MUL PUSH2 0x24F DUP2 PUSH2 0x1F6 JUMP JUMPDEST SWAP2 POP PUSH32 0x8000000000000000000000000000000000000000000000000000000000000000 DUP5 EQ PUSH0 DUP5 SLT AND ISZERO PUSH2 0x286 JUMPI PUSH2 0x285 PUSH2 0x1FF JUMP JUMPDEST JUMPDEST DUP3 DUP3 SDIV DUP5 EQ DUP4 ISZERO OR PUSH2 0x29B JUMPI PUSH2 0x29A PUSH2 0x1FF JUMP JUMPDEST JUMPDEST POP SWAP3 SWAP2 POP POP JUMP JUMPDEST PUSH32 0x4E487B7100000000000000000000000000000000000000000000000000000000 PUSH0 MSTORE PUSH1 0x12 PUSH1 0x4 MSTORE PUSH1 0x24 PUSH0 REVERT JUMPDEST PUSH0 PUSH2 0x2D9 DUP3 PUSH2 0x1F6 JUMP JUMPDEST SWAP2 POP PUSH2 0x2E4 DUP4 PUSH2 0x1F6 JUMP JUMPDEST SWAP3 POP DUP3 PUSH2 0x2F4 JUMPI PUSH2 0x2F3 PUSH2 0x2A2 JUMP JUMPDEST JUMPDEST PUSH1 0x1 PUSH0 SUB DUP4 EQ PUSH32 0x8000000000000000000000000000000000000000000000000000000000000000 DUP4 EQ AND ISZERO PUSH2 0x32C JUMPI PUSH2 0x32B PUSH2 0x1FF JUMP JUMPDEST JUMPDEST DUP3 DUP3 SDIV SWAP1 POP SWAP3 SWAP2 POP POP JUMP JUMPDEST PUSH0 PUSH2 0x341 DUP3 PUSH2 0x1F6 JUMP JUMPDEST SWAP2 POP PUSH2 0x34C DUP4 PUSH2 0x1F6 JUMP JUMPDEST SWAP3 POP DUP3 DUP3 ADD SWAP1 POP DUP3 DUP2 SLT ISZERO PUSH0 DUP4 SLT AND DUP4 DUP3 SLT PUSH0 DUP5 SLT ISZERO AND OR ISZERO PUSH2 0x372 JUMPI PUSH2 0x371 PUSH2 0x1FF JUMP JUMPDEST JUMPDEST SWAP3 SWAP2 POP POP JUMP JUMPDEST PUSH0 PUSH2 0x382 DUP3 PUSH2 0x1F6 JUMP JUMPDEST SWAP2 POP PUSH2 0x38D DUP4 PUSH2 0x1F6 JUMP JUMPDEST SWAP3 POP DUP3 DUP3 SUB SWAP1 POP DUP2 DUP2 SLT PUSH0 DUP5 SLT AND DUP3 DUP3 SGT PUSH0 DUP6 SLT ISZERO AND OR ISZERO PUSH2 0x3B2 JUMPI PUSH2 0x3B1 PUSH2 0x1FF JUMP JUMPDEST JUMPDEST SWAP3 SWAP2 POP POP JUMP JUMPDEST PUSH2 0x8F6 DUP1 PUSH2 0x3C5 PUSH0 CODECOPY PUSH0 RETURN INVALID PUSH1 0x80 PUSH1 0x40 MSTORE CALLVALUE DUP1 ISZERO PUSH2 0xF JUMPI PUSH0 PUSH0 REVERT JUMPDEST POP PUSH1 0x4 CALLDATASIZE LT PUSH2 0x29 JUMPI PUSH0 CALLDATALOAD PUSH1 0xE0 SHR DUP1 PUSH4 0x183B3372 EQ PUSH2 0x2D JUMPI JUMPDEST PUSH0 PUSH0 REVERT JUMPDEST PUSH2 0x47 PUSH1 0x4 DUP1 CALLDATASIZE SUB DUP2 ADD SWAP1 PUSH2 0x42 SWAP2 SWAP1 PUSH2 0x490 JUMP JUMPDEST PUSH2 0x5D JUMP JUMPDEST PUSH1 0x40 MLOAD PUSH2 0x54 SWAP2 SWAP1 PUSH2 0x4F9 JUMP JUMPDEST PUSH1 0x40 MLOAD DUP1 SWAP2 SUB SWAP1 RETURN JUMPDEST PUSH0 PUSH0 PUSH2 0x68 DUP4 PUSH2 0x1B5 JUMP JUMPDEST SWAP1 POP PUSH0 PUSH0 PUSH0 DUP4 PUSH1 0x1 DUP2 GT ISZERO PUSH2 0x80 JUMPI PUSH2 0x7F PUSH2 0x512 JUMP JUMPDEST JUMPDEST PUSH1 0x1 DUP2 GT ISZERO PUSH2 0x92 JUMPI PUSH2 0x91 PUSH2 0x512 JUMP JUMPDEST JUMPDEST DUP2 MSTORE PUSH1 0x20 ADD SWAP1 DUP2 MSTORE PUSH1 0x20 ADD PUSH0 KECCAK256 PUSH1 0x40 MLOAD DUP1 PUSH1 0x40 ADD PUSH1 0x40 MSTORE SWAP1 DUP2 PUSH0 DUP3 ADD PUSH0 SWAP1 SLOAD SWAP1 PUSH2 0x100 EXP SWAP1 DIV PUSH1 0xFF AND ISZERO ISZERO ISZERO ISZERO DUP2 MSTORE PUSH1 0x20 ADD PUSH0 DUP3 ADD PUSH1 0x1 SWAP1 SLOAD SWAP1 PUSH2 0x100 EXP SWAP1 DIV DUP1 ISZERO PUSH2 0x306 MUL OR PUSH8 0xFFFFFFFFFFFFFFFF AND PUSH8 0xFFFFFFFFFFFFFFFF AND PUSH8 0xFFFFFFFFFFFFFFFF AND DUP2 MSTORE POP POP SWAP1 POP DUP1 PUSH0 ADD MLOAD PUSH2 0x140 JUMPI PUSH1 0x40 MLOAD PUSH32 0x8C379A000000000000000000000000000000000000000000000000000000000 DUP2 MSTORE PUSH1 0x4 ADD PUSH2 0x137 SWAP1 PUSH2 0x5BF JUMP JUMPDEST PUSH1 0x40 MLOAD DUP1 SWAP2 SUB SWAP1 REVERT JUMPDEST PUSH2 0x151 DUP6 DUP3 PUSH1 0x20 ADD MLOAD PUSH4 0xFFFFFFFF AND JUMP JUMPDEST SWAP3 POP POP POP SWAP3 SWAP2 POP POP JUMP JUMPDEST PUSH0 PUSH1 0x20 PUSH1 0x5 PUSH1 0x9 DUP5 PUSH2 0x16D SWAP2 SWAP1 PUSH2 0x60A JUMP JUMPDEST PUSH2 0x177 SWAP2 SWAP1 PUSH2 0x6AD JUMP JUMPDEST PUSH2 0x181 SWAP2 SWAP1 PUSH2 0x715 JUMP JUMPDEST SWAP1 POP SWAP2 SWAP1 POP JUMP JUMPDEST PUSH0 PUSH1 0x9 PUSH1 0x5 PUSH1 0x20 DUP5 PUSH2 0x19A SWAP2 SWAP1 PUSH2 0x756 JUMP JUMPDEST PUSH2 0x1A4 SWAP2 SWAP1 PUSH2 0x60A JUMP JUMPDEST PUSH2 0x1AE SWAP2 SWAP1 PUSH2 0x6AD JUMP JUMPDEST SWAP1 POP SWAP2 SWAP1 POP JUMP JUMPDEST PUSH0 PUSH0 DUP3 SWAP1 POP PUSH1 0x1 DUP2 MLOAD EQ PUSH2 0x1FE JUMPI PUSH1 0x40 MLOAD PUSH32 0x8C379A000000000000000000000000000000000000000000000000000000000 DUP2 MSTORE PUSH1 0x4 ADD PUSH2 0x1F5 SWAP1 PUSH2 0x7E0 JUMP JUMPDEST PUSH1 0x40 MLOAD DUP1 SWAP2 SUB SWAP1 REVERT JUMPDEST PUSH0 DUP2 PUSH0 DUP2 MLOAD DUP2 LT PUSH2 0x212 JUMPI PUSH2 0x211 PUSH2 0x7FE JUMP JUMPDEST JUMPDEST PUSH1 0x20 ADD ADD MLOAD PUSH1 0xF8 SHR PUSH1 0xF8 SHL SWAP1 POP PUSH32 0x4300000000000000000000000000000000000000000000000000000000000000 DUP2 PUSH31 0xFFFFFFFFFFFFFFFFFFFFFFFFFFFFFFFFFFFFFFFFFFFFFFFFFFFFFFFFFFFFFF NOT AND SUB PUSH2 0x273 JUMPI PUSH1 0x1 SWAP3 POP POP POP PUSH2 0x301 JUMP JUMPDEST PUSH32 0x4600000000000000000000000000000000000000000000000000000000000000 DUP2 PUSH31 0xFFFFFFFFFFFFFFFFFFFFFFFFFFFFFFFFFFFFFFFFFFFFFFFFFFFFFFFFFFFFFF NOT AND SUB PUSH2 0x2C6 JUMPI PUSH0 SWAP3 POP POP POP PUSH2 0x301 JUMP JUMPDEST PUSH1 0x40 MLOAD PUSH32 0x8C379A000000000000000000000000000000000000000000000000000000000 DUP2 MSTORE PUSH1 0x4 ADD PUSH2 0x2F8 SWAP1 PUSH2 0x875 JUMP JUMPDEST PUSH1 0x40 MLOAD DUP1 SWAP2 SUB SWAP1 REVERT JUMPDEST SWAP2 SWAP1 POP JUMP JUMPDEST PUSH2 0x30E PUSH2 0x893 JUMP JUMPDEST JUMP JUMPDEST PUSH0 PUSH1 0x40 MLOAD SWAP1 POP SWAP1 JUMP JUMPDEST PUSH0 PUSH0 REVERT JUMPDEST PUSH0 PUSH0 REVERT JUMPDEST PUSH0 DUP2 SWAP1 POP SWAP2 SWAP1 POP JUMP JUMPDEST PUSH2 0x333 DUP2 PUSH2 0x321 JUMP JUMPDEST DUP2 EQ PUSH2 0x33D JUMPI PUSH0 PUSH0 REVERT JUMPDEST POP JUMP JUMPDEST PUSH0 DUP2 CALLDATALOAD SWAP1 POP PUSH2 0x34E DUP2 PUSH2 0x32A JUMP JUMPDEST SWAP3 SWAP2 POP POP JUMP JUMPDEST PUSH0 PUSH0 REVERT JUMPDEST PUSH0 PUSH0 REVERT JUMPDEST PUSH0 PUSH1 0x1F NOT PUSH1 0x1F DUP4 ADD AND SWAP1 POP SWAP2 SWAP1 POP JUMP JUMPDEST PUSH32 0x4E487B7100000000000000000000000000000000000000000000000000000000 PUSH0 MSTORE PUSH1 0x41 PUSH1 0x4 MSTORE PUSH1 0x24 PUSH0 REVERT JUMPDEST PUSH2 0x3A2 DUP3 PUSH2 0x35C JUMP JUMPDEST DUP2 ADD DUP2 DUP2 LT PUSH8 0xFFFFFFFFFFFFFFFF DUP3 GT OR ISZERO PUSH2 0x3C1 JUMPI PUSH2 0x3C0 PUSH2 0x36C JUMP JUMPDEST JUMPDEST DUP1 PUSH1 0x40 MSTORE POP POP POP JUMP JUMPDEST PUSH0 PUSH2 0x3D3 PUSH2 0x310 JUMP JUMPDEST SWAP1 POP PUSH2 0x3DF DUP3 DUP3 PUSH2 0x399 JUMP JUMPDEST SWAP2 SWAP1 POP JUMP JUMPDEST PUSH0 PUSH8 0xFFFFFFFFFFFFFFFF DUP3 GT ISZERO PUSH2 0x3FE JUMPI PUSH2 0x3FD PUSH2 0x36C JUMP JUMPDEST JUMPDEST PUSH2 0x407 DUP3 PUSH2 0x35C JUMP JUMPDEST SWAP1 POP PUSH1 0x20 DUP2 ADD SWAP1 POP SWAP2 SWAP1 POP JUMP JUMPDEST DUP3 DUP2 DUP4 CALLDATACOPY PUSH0 DUP4 DUP4 ADD MSTORE POP POP POP JUMP JUMPDEST PUSH0 PUSH2 0x434 PUSH2 0x42F DUP5 PUSH2 0x3E4 JUMP JUMPDEST PUSH2 0x3CA JUMP JUMPDEST SWAP1 POP DUP3 DUP2 MSTORE PUSH1 0x20 DUP2 ADD DUP5 DUP5 DUP5 ADD GT ISZERO PUSH2 0x450 JUMPI PUSH2 0x44F PUSH2 0x358 JUMP JUMPDEST JUMPDEST PUSH2 0x45B DUP5 DUP3 DUP6 PUSH2 0x414 JUMP JUMPDEST POP SWAP4 SWAP3 POP POP POP JUMP JUMPDEST PUSH0 DUP3 PUSH1 0x1F DUP4 ADD SLT PUSH2 0x477 JUMPI PUSH2 0x476 PUSH2 0x354 JUMP JUMPDEST JUMPDEST DUP2 CALLDATALOAD PUSH2 0x487 DUP5 DUP3 PUSH1 0x20 DUP7 ADD PUSH2 0x422 JUMP JUMPDEST SWAP2 POP POP SWAP3 SWAP2 POP POP JUMP JUMPDEST PUSH0 PUSH0 PUSH1 0x40 DUP4 DUP6 SUB SLT ISZERO PUSH2 0x4A6 JUMPI PUSH2 0x4A5 PUSH2 0x319 JUMP JUMPDEST JUMPDEST PUSH0 PUSH2 0x4B3 DUP6 DUP3 DUP7 ADD PUSH2 0x340 JUMP JUMPDEST SWAP3 POP POP PUSH1 0x20 DUP4 ADD CALLDATALOAD PUSH8 0xFFFFFFFFFFFFFFFF DUP2 GT ISZERO PUSH2 0x4D4 JUMPI PUSH2 0x4D3 PUSH2 0x31D JUMP JUMPDEST JUMPDEST PUSH2 0x4E0 DUP6 DUP3 DUP7 ADD PUSH2 0x463 JUMP JUMPDEST SWAP2 POP POP SWAP3 POP SWAP3 SWAP1 POP JUMP JUMPDEST PUSH2 0x4F3 DUP2 PUSH2 0x321 JUMP JUMPDEST DUP3 MSTORE POP POP JUMP JUMPDEST PUSH0 PUSH1 0x20 DUP3 ADD SWAP1 POP PUSH2 0x50C PUSH0 DUP4 ADD DUP5 PUSH2 0x4EA JUMP JUMPDEST SWAP3 SWAP2 POP POP JUMP JUMPDEST PUSH32 0x4E487B7100000000000000000000000000000000000000000000000000000000 PUSH0 MSTORE PUSH1 0x21 PUSH1 0x4 MSTORE PUSH1 0x24 PUSH0 REVERT JUMPDEST PUSH0 DUP3 DUP3 MSTORE PUSH1 0x20 DUP3 ADD SWAP1 POP SWAP3 SWAP2 POP POP JUMP JUMPDEST PUSH32 0x496E76616C696420756E697420636F6E76657273696F6E207265717565737465 PUSH0 DUP3 ADD MSTORE PUSH32 0x642E000000000000000000000000000000000000000000000000000000000000 PUSH1 0x20 DUP3 ADD MSTORE POP JUMP JUMPDEST PUSH0 PUSH2 0x5A9 PUSH1 0x22 DUP4 PUSH2 0x53F JUMP JUMPDEST SWAP2 POP PUSH2 0x5B4 DUP3 PUSH2 0x54F JUMP JUMPDEST PUSH1 0x40 DUP3 ADD SWAP1 POP SWAP2 SWAP1 POP JUMP JUMPDEST PUSH0 PUSH1 0x20 DUP3 ADD SWAP1 POP DUP2 DUP2 SUB PUSH0 DUP4 ADD MSTORE PUSH2 0x5D6 DUP2 PUSH2 0x59D JUMP JUMPDEST SWAP1 POP SWAP2 SWAP1 POP JUMP JUMPDEST PUSH32 0x4E487B7100000000000000000000000000000000000000000000000000000000 PUSH0 MSTORE PUSH1 0x11 PUSH1 0x4 MSTORE PUSH1 0x24 PUSH0 REVERT JUMPDEST PUSH0 PUSH2 0x614 DUP3 PUSH2 0x321 JUMP JUMPDEST SWAP2 POP PUSH2 0x61F DUP4 PUSH2 0x321 JUMP JUMPDEST SWAP3 POP DUP3 DUP3 MUL PUSH2 0x62D DUP2 PUSH2 0x321 JUMP JUMPDEST SWAP2 POP PUSH32 0x8000000000000000000000000000000000000000000000000000000000000000 DUP5 EQ PUSH0 DUP5 SLT AND ISZERO PUSH2 0x664 JUMPI PUSH2 0x663 PUSH2 0x5DD JUMP JUMPDEST JUMPDEST DUP3 DUP3 SDIV DUP5 EQ DUP4 ISZERO OR PUSH2 0x679 JUMPI PUSH2 0x678 PUSH2 0x5DD JUMP JUMPDEST JUMPDEST POP SWAP3 SWAP2 POP POP JUMP JUMPDEST PUSH32 0x4E487B7100000000000000000000000000000000000000000000000000000000 PUSH0 MSTORE PUSH1 0x12 PUSH1 0x4 MSTORE PUSH1 0x24 PUSH0 REVERT JUMPDEST PUSH0 PUSH2 0x6B7 DUP3 PUSH2 0x321 JUMP JUMPDEST SWAP2 POP PUSH2 0x6C2 DUP4 PUSH2 0x321 JUMP JUMPDEST SWAP3 POP DUP3 PUSH2 0x6D2 JUMPI PUSH2 0x6D1 PUSH2 0x680 JUMP JUMPDEST JUMPDEST PUSH1 0x1 PUSH0 SUB DUP4 EQ PUSH32 0x8000000000000000000000000000000000000000000000000000000000000000 DUP4 EQ AND ISZERO PUSH2 0x70A JUMPI PUSH2 0x709 PUSH2 0x5DD JUMP JUMPDEST JUMPDEST DUP3 DUP3 SDIV SWAP1 POP SWAP3 SWAP2 POP POP JUMP JUMPDEST PUSH0 PUSH2 0x71F DUP3 PUSH2 0x321 JUMP JUMPDEST SWAP2 POP PUSH2 0x72A DUP4 PUSH2 0x321 JUMP JUMPDEST SWAP3 POP DUP3 DUP3 ADD SWAP1 POP DUP3 DUP2 SLT ISZERO PUSH0 DUP4 SLT AND DUP4 DUP3 SLT PUSH0 DUP5 SLT ISZERO AND OR ISZERO PUSH2 0x750 JUMPI PUSH2 0x74F PUSH2 0x5DD JUMP JUMPDEST JUMPDEST SWAP3 SWAP2 POP POP JUMP JUMPDEST PUSH0 PUSH2 0x760 DUP3 PUSH2 0x321 JUMP JUMPDEST SWAP2 POP PUSH2 0x76B DUP4 PUSH2 0x321 JUMP JUMPDEST SWAP3 POP DUP3 DUP3 SUB SWAP1 POP DUP2 DUP2 SLT PUSH0 DUP5 SLT AND DUP3 DUP3 SGT PUSH0 DUP6 SLT ISZERO AND OR ISZERO PUSH2 0x790 JUMPI PUSH2 0x78F PUSH2 0x5DD JUMP JUMPDEST JUMPDEST SWAP3 SWAP2 POP POP JUMP JUMPDEST PUSH32 0x556E6974206D75737420626520612073696E676C65206368617261637465722E PUSH0 DUP3 ADD MSTORE POP JUMP JUMPDEST PUSH0 PUSH2 0x7CA PUSH1 0x20 DUP4 PUSH2 0x53F JUMP JUMPDEST SWAP2 POP PUSH2 0x7D5 DUP3 PUSH2 0x796 JUMP JUMPDEST PUSH1 0x20 DUP3 ADD SWAP1 POP SWAP2 SWAP1 POP JUMP JUMPDEST PUSH0 PUSH1 0x20 DUP3 ADD SWAP1 POP DUP2 DUP2 SUB PUSH0 DUP4 ADD MSTORE PUSH2 0x7F7 DUP2 PUSH2 0x7BE JUMP JUMPDEST SWAP1 POP SWAP2 SWAP1 POP JUMP JUMPDEST PUSH32 0x4E487B7100000000000000000000000000000000000000000000000000000000 PUSH0 MSTORE PUSH1 0x32 PUSH1 0x4 MSTORE PUSH1 0x24 PUSH0 REVERT JUMPDEST PUSH32 0x496E76616C696420756E69742070726F76696465642E00000000000000000000 PUSH0 DUP3 ADD MSTORE POP JUMP JUMPDEST PUSH0 PUSH2 0x85F PUSH1 0x16 DUP4 PUSH2 0x53F JUMP JUMPDEST SWAP2 POP PUSH2 0x86A DUP3 PUSH2 0x82B JUMP JUMPDEST PUSH1 0x20 DUP3 ADD SWAP1 POP SWAP2 SWAP1 POP JUMP JUMPDEST PUSH0 PUSH1 0x20 DUP3 ADD SWAP1 POP DUP2 DUP2 SUB PUSH0 DUP4 ADD MSTORE PUSH2 0x88C DUP2 PUSH2 0x853 JUMP JUMPDEST SWAP1 POP SWAP2 SWAP1 POP JUMP JUMPDEST PUSH32 0x4E487B7100000000000000000000000000000000000000000000000000000000 PUSH0 MSTORE PUSH1 0x51 PUSH1 0x4 MSTORE PUSH1 0x24 PUSH0 REVERT INVALID LOG2 PUSH5 0x6970667358 0x22 SLT KECCAK256 SMOD CODECOPY JUMPDEST BASEFEE 0xAF PUSH25 0x5A4A4B23F50F3373594DC094F71E24603638F1B977B25AE13D SMOD PUSH5 0x736F6C6343 STOP ADDMOD SHR STOP CALLER "
				},
				"gasEstimates": {
					"creation": {
						"codeDepositCost": "458800",
						"executionCost": "98144",
						"totalCost": "556944"
					},
					"external": {
						"convertTemperature(int256,string)": "infinite"
					},
					"internal": {
						"charToUnit(string memory)": "infinite",
						"toCelsius(int256)": "infinite",
						"toFahrenheit(int256)": "infinite"
					}
				},
				"methodIdentifiers": {
					"convertTemperature(int256,string)": "183b3372"
				}
			},
			"storageLayout": {
				"storage": [
					{
						"astId": 21,
						"contract": "ethereum-and-smart-contracts-basics/lab/temperature-conversion.sol:TemperatureConversion",
						"label": "conversions",
						"offset": 0,
						"slot": "0",
						"type": "t_mapping(t_enum(Unit)4,t_struct(Conversion)15_storage)"
					}
				],
				"types": {
					"t_bool": {
						"encoding": "inplace",
						"label": "bool",
						"numberOfBytes": "1"
					},
					"t_enum(Unit)4": {
						"encoding": "inplace",
						"label": "enum TemperatureConversion.Unit",
						"numberOfBytes": "1"
					},
					"t_function_internal_pure(t_int256)returns(t_int256)": {
						"encoding": "inplace",
						"label": "function (int256) pure returns (int256)",
						"numberOfBytes": "8"
					},
					"t_mapping(t_enum(Unit)4,t_struct(Conversion)15_storage)": {
						"encoding": "mapping",
						"key": "t_enum(Unit)4",
						"label": "mapping(enum TemperatureConversion.Unit => struct TemperatureConversion.Conversion)",
						"numberOfBytes": "32",
						"value": "t_struct(Conversion)15_storage"
					},
					"t_struct(Conversion)15_storage": {
						"encoding": "inplace",
						"label": "struct TemperatureConversion.Conversion",
						"members": [
							{
								"astId": 6,
								"contract": "ethereum-and-smart-contracts-basics/lab/temperature-conversion.sol:TemperatureConversion",
								"label": "exists",
								"offset": 0,
								"slot": "0",
								"type": "t_bool"
							},
							{
								"astId": 14,
								"contract": "ethereum-and-smart-contracts-basics/lab/temperature-conversion.sol:TemperatureConversion",
								"label": "func",
								"offset": 1,
								"slot": "0",
								"type": "t_function_internal_pure(t_int256)returns(t_int256)"
							}
						],
						"numberOfBytes": "32"
					}
				}
			},
			"userdoc": {
				"kind": "user",
				"methods": {},
				"version": 1
			}
		}
	}
}